:020000041000EA
:1000000000B5324B212058609868022188439860DF
:10001000D860186158612E4B002199600221596106
:100020000121F02299502B49196001219960352056
:1000300000F044F80222904214D00621196600F024
:1000400034F8196E01211966002018661A6600F04E
:100050002CF8196E196E196E052000F02FF8012189
:100060000842F9D1002199601B49196000215960AB
:100070001A491B48016001219960EB211966A021F2
:10008000196600F012F800219960164914480160C1
:100090000121996001BC002800D000471248134993
:1000A000086003C880F30888084703B5996A0420EC
:1000B0000142FBD001200142F8D103BD02B5186610
:1000C0001866FFF7F2FF186E186E02BD00000240BE
:1000D000000000180000070000035F00212200005C
:1000E000F4000018222000A00001001008ED00E03C
:1000F00000000000000000000000000074B24E7A12
:1001000000000420E3010010C3010010E903001007
:10011000ED030010F1030010F5030010C101001001
:10012000C1010010C1010010C10100104503001001
:10013000C1010010C1010010C9030010D503001057
:10014000CD010010CD010010CD010010CD01001037
:10015000CD010010CD010010CD010010CD01001027
:10016000CD010010CD010010CD010010CD01001017
:10017000CD010010CD010010CD010010CD01001007
:10018000CD010010CD010010CD010010CD010010F7
:10019000CD010010CD010010CD010010CD010010E7
:1001A000CD010010CD010010CD010010CD010010D7
:1001B000CD010010CD010010CD010010CD010010C7
:1001C00000BE00BE00BE00BE00BE00BE00F03FF894
:1001D000103800BE00202049086006C881F3088856
:1001E00010471E48006800282DD10CA40ECC002911
:1001F00002D000F010F8F9E719491A4A002000E08F
:1002000001C19142FCD1184988471849884700BE6E
:10021000FDE701C901C29A42FBD37047EC570210B7
:10022000C0000020341200206C690210000004207D
:10023000000004206C69021000100420001004204B
:100240000000000070470A481AF0AEFA0047EFF3CA
:100250000580C0B27047000008ED00E0000000D04B
:10026000401200200CE10020CD0200106586011034
:1002700057560000F8B5C046F8BC08BC9E4670470B
:10028000F8B5C04610B5064C2378002B07D1054BB6
:10029000002B02D0044800E000BF0123237010BDF2
:1002A000909B00200000000084020010044B10B559
:1002B000002B03D00349044800E000BF10BDC04636
:1002C00000000000949B002084020010164B002BBD
:1002D00000D1144B9D46402292029A1A9246002168
:1002E0008B460F461348144A121A1CF0D9FB0F4BC9
:1002F000002B00D098470E4B002B00D098470020D1
:10030000002104000D000D48002802D00C4818F010
:10031000ACF91BF043FF2000290014F0A1FB18F0FA
:10032000A1F9C04600000800000004200000000001
:10033000C1490110401200200CE100206B86011021
:10034000000000007046C0082CD3EFF309808169DB
:1003500002390978002929D101B50FC8B8470CBC6A
:1003600003C29E461E4B06CB91421ED0083B1A602C
:10037000002909D0EFF3098020388863F0C0444693
:100380004D4656465F46F0C0906B1030F0C8A04610
:10039000A946B246BB4680F309882038F0C802203F
:1003A000C0430047EFF30880D1E770470D4A136858
:1003B0009942FAD801B5890053589C460FC8E047C6
:1003C0000CBC10609E46704701B513F0D7FC03BC0F
:1003D0008E46C7E701B513F08FFC03BC8E46C1E71C
:1003E000380600202C350210102304E0202302E000
:1003F000302300E040239C46F0B404AE7546E80884
:1004000001D3EFF309860E4F0FCE0FC70FBC0FC7F6
:100410004046494652465B460FC71DCE3100A60AEC
:1004200000D304316E0900D248311FC7EFF30980B1
:100430006946EFF3148663C76046014917F0A6FCCE
:1004400068C3002001480421014B184730080020F0
:10045000B9A7011002B4714649084900095649007C
:100460008E4402BC7047C04602B471464908490038
:10047000095C49008E4402BC7047C04603B4714613
:10048000490840004900095A49008E4403BC70479E
:10049000002243088B4274D303098B425FD3030AC3
:1004A0008B4244D3030B8B4228D3030C8B420DD3D6
:1004B000FF22090212BA030C8B4202D31212090264
:1004C00065D0030B8B4219D300E0090AC30B8B42A2
:1004D00001D3CB03C01A5241830B8B4201D38B0350
:1004E000C01A5241430B8B4201D34B03C01A5241F5
:1004F000030B8B4201D30B03C01A5241C30A8B4238
:1005000001D3CB02C01A5241830A8B4201D38B0222
:10051000C01A5241430A8B4201D34B02C01A5241C6
:10052000030A8B4201D30B02C01A5241CDD2C30938
:100530008B4201D3CB01C01A524183098B4201D3B4
:100540008B01C01A524143098B4201D34B01C01A9F
:10055000524103098B4201D30B01C01A5241C30817
:100560008B4201D3CB00C01A524183088B4201D386
:100570008B00C01A524143088B4201D34B00C01A72
:100580005241411A00D20146524110467047FFE7DE
:1005900001B5002000F0F0F802BDC0460029F7D0F8
:1005A00076E7704703460B437FD4002243088B4213
:1005B00074D303098B425FD3030A8B4244D3030BEA
:1005C0008B4228D3030C8B420DD3FF22090212BAAF
:1005D000030C8B4202D31212090265D0030B8B422B
:1005E00019D300E0090AC30B8B4201D3CB03C01A15
:1005F0005241830B8B4201D38B03C01A5241430BF0
:100600008B4201D34B03C01A5241030B8B4201D3DF
:100610000B03C01A5241C30A8B4201D3CB02C01A4A
:100620005241830A8B4201D38B02C01A5241430AC2
:100630008B4201D34B02C01A5241030A8B4201D3B1
:100640000B02C01A5241CDD2C3098B4201D3CB0158
:10065000C01A524183098B4201D38B01C01A524107
:1006600043098B4201D34B01C01A524103098B420B
:1006700001D30B01C01A5241C3088B4201D3CB00F6
:10068000C01A524183088B4201D38B00C01A5241D9
:1006900043088B4201D34B00C01A5241411A00D289
:1006A00001465241104670475DE0CA0F00D04942F2
:1006B000031000D34042534000229C4603098B4262
:1006C0002DD3030A8B4212D3FC22890112BA030AEA
:1006D0008B420CD3890192118B4208D3890192116C
:1006E0008B4204D389013AD0921100E08909C309F1
:1006F0008B4201D3CB01C01A524183098B4201D3F3
:100700008B01C01A524143098B4201D34B01C01ADD
:10071000524103098B4201D30B01C01A5241C30855
:100720008B4201D3CB00C01A524183088B4201D3C4
:100730008B00C01A5241D9D243088B4201D34B00DF
:10074000C01A5241411A00D20146634652415B1021
:10075000104601D34042002B00D549427047634602
:100760005B1000D3404201B5002000F005F802BD47
:100770000029F8D016E770477047C046D0400B1CE0
:10078000D1409C46203AD34018435242634693409E
:10079000184370479140031C90409C46203A934078
:1007A000194352426346D340194370478446101C94
:1007B00062468C46191C634600E0C0461FB501F036
:1007C00081FD002801D40021C8421FBD10B501F0F1
:1007D000D9FC4042013010BD10B501F073FD002876
:1007E00001DB002010BD012010BDC04610B501F096
:1007F00069FD002801DD002010BD012010BDC046AC
:1008000010B501F0FBFC002801DC002010BD012028
:1008100010BDC04610B501F0F1FC002801DA00203F
:1008200010BD012010BDC0468446081C6146FFE78C
:100830001FB500F0CBFB002801D40021C8421FBD2A
:1008400010B500F04DFB4042013010BD10B500F076
:10085000BDFB002801DB002010BD012010BDC046FB
:1008600010B500F0B3FB002801DD002010BD012011
:1008700010BDC04610B500F05BFB002801DC002075
:1008800010BD012010BDC04610B500F051FB00287E
:1008900001DA002010BD012010BDC0461C2101233B
:1008A0001B04984201D3000C10391B0A984201D353
:1008B000000A08391B09984201D30009043902A231
:1008C000105C40187047C046040302020101010198
:1008D0000000000000000000002B15D1002A13D1F9
:1008E000002906DB01DC002806D00020C0434108B7
:1008F00002E080210906002007B4024801A1401847
:10090000029003BD75FEFFFF03B4684601B502986F
:1009100000F030F9019B9E4602B00CBC7047C04607
:10092000002B11D1002A0FD1002900D1002802D0BC
:100930000021C943081C07B4024802A140180290D4
:1009400003BDC04635FEFFFF03B4684601B50298FB
:1009500000F04EF8019B9E4602B00CBC7047C046AA
:10096000F0B5CE46474615042D0C2E0080B5070481
:10097000140C3F0C9946030C7E435D43674363436D
:100980007F19340CE4199C46A54203D980235B02ED
:100990009846C4444B4643435143250C36046544B2
:1009A000360C2404A4195B19591820000CBC90467D
:1009B0009946F0BD70B500220C4B04000D00FFF706
:1009C00029FF002804D12000290002F0B9FA70BDE7
:1009D000064B00222000290001F04EFF02F0B0FA81
:1009E00080231B069C466044F1E7C0460000E041BE
:1009F000F0B54F464646D646C0B5040082B00D005D
:100A0000914698468B422FD82CD04146484602F05A
:100A100039FB29000600200002F034FB331A9C4603
:100A2000203B9A4600D576E04B46524693401F0045
:100A30004B46624693401E00AF4228D825D053460D
:100A4000A41BBD41002B00DA7BE0002200230092B2
:100A50000193012352469340019301236246934040
:100A6000009318E08242D0D9002200230092019323
:100A70000A9B002B01D01C605D600098019902B0B8
:100A80001CBC90469946A246F0BDA342D7D900228D
:100A90000023009201936346002BE9D0FB079846A0
:100AA000414672080A437B0866460EE0AB4201D11C
:100AB000A2420CD8A41A9D41012024196D410021A5
:100AC000013E24184D41002E06D0AB42EED9013E26
:100AD00024196D41002EF8D1009801995346001950
:100AE0006941002B23DB2B005246D3402A00644689
:100AF000E2401C0053461500002B2DDB2600574614
:100B0000BE40330026006746BE403200801A99413D
:100B100000900191ACE7624620239B1A4A46DA40D6
:100B20006146130042468A4017001F4380E7624631
:100B300020239B1A2A0066469A402300F340134361
:100B4000D4E76246202300219B1A002200910192E3
:100B50000122DA40019280E72023624626009B1A98
:100B6000DE402F00B0466646B74046463B00334362
:100B7000C8E7C046F0B583B016001F000090019191
:100B800002F08CFA04000D0002000B003000390066
:100B9000FFF7E6FE009A019B121A8B41089920008C
:100BA0000A604B60290003B0F0BDC046F8B5474667
:100BB000CE4643025B0A4400C20F9C464800DD005B
:100BC0004B02240E5B0A000E80B598462600914623
:100BD000C90FDB00271A8A4229D0002F15DD002813
:100BE0004AD1002B00D095E0ED08FF2C00D188E021
:100BF0006B025B0AE6B25B02F605580A3043D20785
:100C000010430CBC90469946F8BD002F00D087E0F9
:100C1000601CC0B2012800DCB6E0EE1A720100D5FB
:100C2000C5E0002E3DD1002200260023E3E7002F7F
:100C300000DC96E000285DD0FF2C60D08022D2043A
:100C400013431B2F00DDECE02022D21B1800934041
:100C5000F8405A1E93410343ED186B017BD50134D4
:100C6000FF2C00D1B7E0012207262A406B089A4DDD
:100C70001D4015432E4029E0FF2CB5D08022D20420
:100C800013431B2F00DDB2E02022D21B190093403A
:100C9000F9405A1E93410B43ED1A6B015BD5AD0130
:100CA000AE093000FFF7FAFD05388640844265DC66
:100CB000041B330020200134E340041BA640751EB2
:100CC000AE41334307261D0000241E4001224B463F
:100CD0001A40002E04D00F232B40042B00D00435E3
:100CE0006B0100D480E70134E6B2FF2C2FD1FF2640
:100CF000002380E7002B52D1FF2C00D074E70A00BC
:100D0000ED08002DF3D08023DB032B435B025B0A4D
:100D1000FF2670E7013F002FBED0FF2CB1D163E763
:100D2000002C47D0FF2869D08024E4047A42254370
:100D30001B2A00DDC5E02C002026D440B21A9540C5
:100D40006A1E954125435D1B04008946A5E7AB015A
:100D50005B0A50E7002401224B461A406B07BAD1C8
:100D600042E7002F3BD10134E0B201284ADDFF2CDD
:100D7000BDD00726ED186D082E40A7E70723574D75
:100D8000241A35401E40A1E7002C1BD1002D6ED146
:100D9000002B00D19AE00A001D003C0024E7013F2F
:100DA000002F00D158E7FF2C00D04AE7A7E75E1BD1
:100DB000894676E7002D1CD10A00FF281FD00400C9
:100DC0001D0011E7002D5DD1002B17D180230022DB
:100DD000DB03FF260FE70A00FF2600230BE7002CAA
:100DE00021D1002D66D1FF28E9D11D0087E701231D
:100DF00052E77A1CA7D0FA43FF2899D10A001D00B8
:100E0000FF24F1E6002E21D1002D4FD0002B4CD035
:100E1000ED186B019ED5314B07362E4001241D4045
:100E200054E7012318E7FF28DFD08024E4047F4241
:100E300025431B2F4DDC2026F61B2C00B540FC4023
:100E40006A1E95412543ED18040006E7002DCCD01D
:100E5000002B00D153E780216046C903084203D02C
:100E60004046084200D11D000121114047E7002BF8
:100E700000D1B9E6EA1A500125D507265D1B2E40A0
:100E8000894623E7FF24002B00D1ADE6802260468F
:100E9000D203104204D04046104201D11D008946C1
:100EA00001224B46FF241A409EE62B00DD080A0073
:100EB00000249DE67A1CC6D0FF43FF28B9D11D004F
:100EC0001DE701253FE7151E00D044E7002200235F
:100ED00091E60125B7E7C046FFFFFF7DFFFFFFFB5F
:100EE00070B542004E024C0045026D0A120EC30F4F
:100EF000760A240EC90FFF2A0FD0FF2C11D0012033
:100F0000A24200D070BDB542FCD18B420DD0002A68
:100F1000F8D12800451EA841F4E70120002DF1D1A9
:100F2000EBE70120002EEDD1E9E70020EAE7C0461B
:100F300070B54A004E02450244006D0A240EC30FEC
:100F4000760A120EC90FFF2C15D0FF2A0ED0002CE6
:100F500015D1002A01D1002E1CD0002D14D08B42B7
:100F600027D00220013B1840013870BD002EEED082
:100F700002204042F9E7002DFAD1FF2A0ED0002AC4
:100F80000ED1002EEDD00BE001230139994308006A
:100F90000130EAE70020002DE7D0E2E7002EE7D19C
:100FA0008B42DED1944205DD0221581E08400138F3
:100FB000DBE70024A24204DCB542D2D80020B542CF
:100FC000D3D2581E012398430130CEE730B54200FA
:100FD00044024D02C30F4800640A120E6D0A000E4F
:100FE000C90FFF2A12D0FF280CD0002A12D10028E6
:100FF00019D1002D17D1002C2BD00220013B184015
:10100000013826E0002DF0D0022022E0002CFBD198
:10101000FF281FD000281FD1002D1DD10220013B29
:101020001840013815E0002C0ED08B42E5D100228B
:10103000904204DCAC42E0D80020AC4209D2581EF9
:1010400001239843013004E001230139994308004A
:10105000013030BD002DD7D18B42CED18242E7DDA9
:101060000221581E08400138F3E7C046F8B547464C
:10107000CE464400C20F80B547024802400A84466B
:10108000664648007F0A240EF60025009046FB00C5
:10109000000EC90FB146FF2800D185E0012671403E
:1010A000261A914257D0002E43DD002800D07FE061
:1010B0004946002900D1AAE0013E002E00D0F7E009
:1010C0005B1A5A0100D48BE09B019C092000FFF7BA
:1010D000E5FB05388440854200DDD3E0451B230055
:1010E00020200135EB40451BAC40621E9441234358
:1010F000072400251C40012241460A40002C04D050
:101100000F211940042900D00433590100D480E094
:101110000135ECB2FF2D00D0A3E0FF2400235B02D9
:10112000E405580AD207204310430CBC9046994668
:10113000F8BD002E74D1601CC0B2012800DCA7E00D
:101140004A469C1A620100D5B6E0002CBED10022AE
:1011500000240023E3E7002E00DC85E0002846D0D1
:10116000FF2C49D080224846D204104381460122F8
:101170001B2E09DC20204C46801B84404A46200060
:10118000F240441EA04102439B185A0128D5013564
:10119000FF2D00D1A8E00122072494491A405B08E2
:1011A0000B4013431C40A6E7002E00D078E775E7FC
:1011B000FF2C54D080224946D20411438946012293
:1011C0001B2E09DC20214846891B88404A46010025
:1011D000F240481E81410A439B1A5A0100D573E729
:1011E000012241460A40590700D089E711E04846EC
:1011F000002858D1FF2C0CD1DB08002B00D18CE744
:101200008020C00303435B025B0AFF2487E7FF2CB7
:1012100025D0DB08FF2DF0D05B025B0AECB27EE745
:10122000002C4DD0FF2818D08024E40472422343C0
:101230001B2A00DDC4E01C002025D440AA1A9340DC
:101240005A1E934123434A460500D31A884638E77D
:10125000721CF8D0F243FF28EAD10A004B46FF2562
:10126000D7E79B015B0A5AE7002E41D1651CE9B222
:10127000012945DDFF2D00D14FE707244B445B08D2
:101280001C4038E707225A4B2D1A2340144032E7FE
:10129000002C1DD1002B7AD14B46002B00D191E0C0
:1012A0000A000025B5E7013E002E19D14B446CE73A
:1012B000FF2C84D1FF25ACE74A468846D41A05E7BF
:1012C000002BC5D10A00FF28C8D005004B46A0E777
:1012D000002B49D14B46002B77D00A00FF2598E719
:1012E000FF2C00D043E787E70A00FF24002316E71E
:1012F000002C15D1002B57D1FF28E6D14B467BE7B8
:10130000002C20D1002B57D04946002953D04B4404
:101310005A0168D50724364A1C4001251340EAE6E5
:10132000FF28EBD08022D204764213431B2E53DCDD
:101330002025AD1B1A00AB40F2405C1EA3411343B5
:101340004B44050021E7002BD8D04946002900D1A5
:1013500052E78021C9030F4200D14DE760460842A1
:1013600000D049E74B4647E74846FF25002800D113
:101370004FE78022D203174204D06046104201D1C9
:101380004B46884601224146FF250A4041E7484630
:1013900000281FD01A1A500120D54A460724D31A14
:1013A0001C4088460025A6E6741CC9D0F643FF28D9
:1013B000BCD14B4620E799464B460025DB082BE77E
:1013C000012340E700220023A9E680230022DB035B
:1013D000FF24A4E600251CE70123B1E7002AF1D091
:1013E00013000025FCE60025FAE6C046FFFFFF7D5E
:1013F000FFFFFFFB41024200C30F490A120E00200B
:101400007E2A0DD99D2A0CD8802000040143952AFC
:101410000ADC9620821AD1404842002B00D10800F5
:101420007047034A9818FBE7963A9140F4E7C046A4
:10143000FFFFFF7F70B500283DD0C317C5185D4082
:10144000C40F2800FFF72AFA9E22121A962A07DCF8
:10145000D2B2082833DD083885406802400A23E00C
:10146000992A0BDD052329001B1AD94003001B33E1
:101470009D402B005D1EAB4119430D00052801DD89
:10148000431F9D402B000F490B406E0709D00F26CC
:101490003540042D05D004335D0102D59F220B4059
:1014A000121A9B01580AD2B24002D205400AE40740
:1014B0001043204370BD002400220020F4E768029E
:1014C000400AF1E7FFFFFFFB70B5041E34D0FFF7C1
:1014D000E5F99E22121A962A07DCD2B208282EDDE0
:1014E000083884406002400A21E0992A09DD03009F
:1014F00021001B3399404B1E994105231B1ADC40E8
:101500000C43052801DD431F9C4023000D490B407F
:10151000650709D00F252C40042C05D004335C014D
:1015200002D59F220B40121A9B01580AD2B24002E8
:10153000D205400A104370BD00220020F7E7600288
:10154000400AF4E7FFFFFFFBF0B54F464646D6469C
:101550000C000903C0B5490A470F5E0039431F0359
:10156000DB0F9C4665007B0A570F1F436D0DE40F90
:10157000760DA146C000B846D200AB1B64457BD0B7
:10158000002B5FDD002E00D0A4E03E00164300D10A
:1015900012E15E1E002E00D09EE1871A4346B8423B
:1015A00080410125C91A4042091A0B0200D431E1D9
:1015B00049024E0A002E00D16EE13000FFF76EF9AD
:1015C0000300083B1F2B00DD61E120223900D21A05
:1015D0009E40D1409F400E439D4200DD51E15D1B86
:1015E0006B1C1F2B00DD7CE12021C91A3D0030005F
:1015F0008F408840DD40791E8F413100072228430B
:10160000D940002507433A40002A09D00F233B4028
:10161000042B05D03B1DBB42BF417F42C9191F00AF
:101620000B0200D426E26A1CC64B55056D0D9A428A
:1016300000D106E1C44AFF080A40530752023B4367
:10164000120B8EE0002B00D0B8E06B1C5B055B0D2D
:10165000012B00DC30E1871A4346B842B641CB1A71
:1016600076429E1B330200D54CE13B003343A1D1AF
:1016700000220024002570E0002B00DCE5E0002EB5
:1016800000D183E0AF4EB54260D0802636043743A8
:10169000B846382B00DC3EE1434613431F007A1E58
:1016A00097413F1887428041404209180B0200D4FD
:1016B000B0E0A44B01359D4200D1C3E0A24A7B08B3
:1016C0000A4001210F401F435108D30707221F433F
:1016D0003A4099E79B4EB54238D0802636043743CE
:1016E000B846382B00DDDCE01F2B00DC30E11E00AB
:1016F0004746203EF740BC46202B04D04026F31A34
:1017000046469E403243170063467A1E97411F4368
:10171000CCE0002B00D104E24346134300D159E151
:101720004B07C00818438023C9081B03194208D07F
:101730004546ED081D4204D14346D00859070843E9
:101740002900420FC9007F4D1143C0004B07CA0852
:101750007C49C00803438D4268D012036D05120B0B
:101760006D0D002112031800130B0A0D12051A4308
:10177000764B2D0513402B435B00E4075B082343A6
:1017800019001CBC90469946A246F0BD3E00164387
:1017900012D05E1E002E00D000E1871887428041E3
:1017A00041444042091801250B0233D5022585E743
:1017B00064463300414610001D00C7E7002D00D0ED
:1017C000DAE00C000443F3D05C1C00D19FE15D4CD7
:1017D000A64200D12FE1DB43382B00DD66E11F2B51
:1017E00000DD83E120240500E41A0F00DD40D9402C
:1017F000A0404346A7405B1A441EA04198462F4391
:101800003843171ABA42924143465242991A6446E3
:101810003500CAE607223A40002A00D0F6E64B0718
:10182000CA084849FF083B438D4296D1190011432D
:1018300000D19EE1802109030A431203120B414D9E
:101840008FE71500002200238BE7002B00D0C7E0B4
:101850006B1C5F057F0D012F00DCF1E0394DAB42C1
:1018600000D1B9E085180A008542894142444942C5
:1018700051180722CF076D082F4349083A401D0031
:10188000C2E607223049ED1A31403A40BCE63E003C
:101890002838864000279FE63800FEF7FFFF2030FB
:1018A0008EE6434613431F007A1E9741C71BB8427A
:1018B00080414042091A78E60E003B00064313437C
:1018C000002D61D1002E00D0F4E0002B00D11BE1EF
:1018D00064463900100039E71A4FBB427AD0330012
:1018E000FFE630001F3DE840202B03D04021CB1AFB
:1018F0009E4037437B1E9F41072207433A40002109
:10190000002589E7171A4346BA42B641591A76426A
:101910008E1B64464EE61F2B00DDADE020264746B9
:10192000F61AB740B9461700B246DF404E463E436E
:1019300037005646B240561EB24117434246DA407F
:101940008918AEE6FF070000FFFF7FFFFFFF0F8053
:1019500020264746F61AB740B9461700B246DF4080
:101960004E463E4337005646B240561EB2411743DC
:101970004246DA40891A99E77F4CA6425BD0802420
:1019800024045B42214327E7002E0CD1002B00D119
:10199000CBE0644639001000774DD7E6764FBB4266
:1019A00018D0330075E6002B14D04B07C00818433D
:1019B0008023C9081B03194207D0FC081C4204D12C
:1019C0007907D0080843E14621004C46420FC90080
:1019D0001143C000684DB9E61D0000220023C0E697
:1019E000002D5BD10D00054300D1E2E65D1C00D166
:1019F000B0E0614DAE421FD0DB43382B71DC1F2BB2
:101A000000DD96E020250F00ED1AAF40B946070033
:101A1000AA46DF404D463D432F005546A840D940D9
:101A2000451EA84188440743BF189742924151423E
:101A3000414435003AE6644635004146100085E6EB
:101A40000B000343002D00D063E6002BF5D0434686
:101A5000134300D17AE68718874280410722414428
:101A6000404209183A400B0200D4D5E6434B0135F9
:101A70001940C9E5380069E61E004746203EF74098
:101A8000BC46202B04D04026F31A46469E403243E3
:101A9000170063467A1E97411F4302E6364DAE4259
:101AA000CAD080252D045B422943A6E70843411E86
:101AB0008841A6E6002B00D148E6871A4346B84283
:101AC000B641CB1A76429E1B33024BD5171A4346BA
:101AD000BA429241591A5242891A072264463A4040
:101AE00092E501430F00791E8F419DE71C000F0016
:101AF000203CE740202B03D04024E31A99400843C0
:101B0000411E884138437CE60022002425E6171A4E
:101B10004346BA429241591A5242891A64463500E4
:101B200043E541461000144D10E6802200241203C4
:101B300080E61D000F00203DEF40BC46202B03D067
:101B40004025EB1A9940084307006346781E8741F9
:101B50001F4369E7871897429B4141445B42C9187C
:101B60003500A3E53B003343CED0072231003A4095
:101B700052E600231A00F4E5FF070000FFFF7FFF95
:101B8000F0B55746DE464E464546E0B5834607006B
:101B90000E03480085B092461C00360B400DCD0F59
:101BA000002800D19DE0954B984239D08023F60063
:101BB0001B041E43924A7B0F33439946944603000D
:101BC0006344009300230026FF00029323031B0BB2
:101BD00098466300E40F52465B0D019400D1B3E0D8
:101BE00086498B4200D19EE04246D10080221204F9
:101BF0000A435146490F11438B46814952468C4650
:101C000000996344CB1A0021D20000932B0063405B
:101C10009A460F2E00D905E17A4BB6009B599F4694
:101C20005B463343994600D0B8E0022308260027DC
:101C300000900293CAE7CB463A0002990195019BB6
:101C40009A46022927D0032900D180E2012944D0F5
:101C50006D49009B8C4663441C00002C38DD530703
:101C600000D013E2D2085B46DB0109D55946674B29
:101C700019408B468021C9008C46009B63441C00A0
:101C8000634B9C4207DC5B4664055F075B021743BE
:101C90001B0B620D02E000230027584A00211B03A2
:101CA0001C0B0B0D1B05234314055A4A3800134027
:101CB0001C4353466400DB0764081C43210005B045
:101CC0003CBC90469946A246AB46F0BD012252422A
:101CD00001231B1B382B00DCADE100220023002771
:101CE000DCE75B46334399465ED0002E00D18AE1A3
:101CF0003000FEF7D3FD03000B3B1C2B00DD7BE126
:101D00001D22D31A5A460100DA4008398E401300CA
:101D10005F46334399468F403F4B00261B1A009382
:101D20000023029352E7414653460B433B499B46EF
:101D30008C46009B634400935B46002B3BD10223FF
:101D400000221E43022161E7434613439B4637D0DE
:101D50004346002B00D162E14046FEF79FFD0300A1
:101D60000B3B1C2B00DD53E102004146083A914039
:101D700088461D21CB1A5146D9400B0041460B43E2
:101D80009B46534693401A00009B25499C4660445D
:101D900003008C4663440093002137E70323B146D8
:101DA00000900C26029311E70023009301330426D0
:101DB000002702930AE70323C3461E43032125E7B6
:101DC00001331E430022012120E700239A4680238D
:101DD00000271B03094A61E7802349461B03194278
:101DE00000D1E2E05946194200D0DEE00B431B036C
:101DF00017001B0BA246014A50E7C046FF07000030
:101E000001FCFFFF10210210FF030000FFFFFFFE97
:101E1000FE070000FFFF0F800DFCFFFF01F8FFFF32
:101E2000F3030000D94500D9CBE000D1C6E03C0067
:101E300048460027009B013B00935B46160E1B02A1
:101E40001E431302984633041B0C9946310C019132
:101E5000FEF7A4FB4A4642430B04210C050019433C
:101E60008A4207D98919013D8E4203D88A4201D995
:101E7000851E8919881A0199FEF790FB09048C4682
:101E80004A46210464464243090C030021438A4226
:101E900004D98919013B8E4200D8F1E02D041D437D
:101EA000AB464346891A4246280C12041D0C5B4679
:101EB000140C22001B041B0C5A4303946B43444331
:101EC000029568431B19150CEB189C4203D980241A
:101ED0006402A44660441C0C15041B042D0C20183D
:101EE0005D19814277D373D00C1AA24A7D1BAF4291
:101EF000BF419446009B7F426344E01B1C00864226
:101F000000D1DBE00199FEF749FB4A4642430B044E
:101F1000290C070019438A4207D98919013F8E42CB
:101F200003D88A4201D9871E8919881A0199FEF7B8
:101F300035FB09044A46894629044D464243090CAB
:101F4000030029438A4207D98919013B8E4203D8ED
:101F50008A4201D9831E89193F04891A3A00039FD6
:101F60001A43380013041B0C584381460298150C81
:101F70006F43434345434846000C8446DB196344A2
:101F80009F4203D9802040028446654448461F0C86
:101F900000041B04000C7D191818A94200D284E02B
:101FA00000D17FE001231A4357E680234A461B03F2
:101FB00013431B031B0BAA466F4A6FE6BA4200D9B4
:101FC00035E74B46DC0758087B081C43FF0734E71E
:101FD0000024AF4289D247444745A4415B4664424E
:101FE000A4196418013BA6421ED2A0426DD800D1AC
:101FF000B6E0241A9B4678E703005A46283B9A40ED
:102000000027914688E65846FEF748FC203072E6E5
:1020100003005246283B9A4093460022B4E65046BD
:10202000FEF73CFC20309AE6A642E2D1B845DCD966
:10203000341A9B4659E71F2B65DC504C0099A44687
:102040005C46614408008C4011008240D940501E1B
:1020500082410C4314435A46DA401300620709D008
:102060000F222240042A05D02200141D94428941E7
:1020700049425B181A0262D50122002300270DE6AF
:102080008A4200D80AE7831E891907E70F23134005
:10209000042B00D1E6E5171D9742924153429B4421
:1020A000FA08E0E5002800D1D7E57118531EB142C7
:1020B00027D3A94215D358D01A0073E7002B00DCB0
:1020C00004E6012300229B44CDE502234744474513
:1020D00089415B429C46494289190C19E344241A00
:1020E00003E743465F0047459B41B8465B429E1964
:1020F000023A8919A94200D054E7404500D051E77F
:10210000ABE51A00F6E71F215F4649420C1BE7408A
:10211000202B07D01A49009B8C46634418005B466D
:1021200083401A43501E82413A4307270023174039
:1021300009D00F21002311401400042995D1220059
:102140005F075B021B0BD20817430022A6E5802322
:1021500059461B030B431B0317001B0B064A9DE547
:10216000BD42B2D89B460024BFE68045B9D31A00D1
:10217000C3E7C046FF030000FF0700001E04000085
:102180003E040000F0B54F464646D6468446C0B5EC
:102190008046194E18030F034D00000B5C00824669
:1021A0003F0B6D0DC90F9146640DDB0F0120B54249
:1021B0000AD0B44203D0A54201D157450CD01CBC73
:1021C00090469946A246F0BD66463E43F7D1AC42E2
:1021D000F5D154461443F2D10120C845EFD19942BC
:1021E00007D0002DEBD163461F433800471EB8418E
:1021F000E5E70020E3E7C046FF070000F0B54F46E3
:102200004646D6464D00C0B50E03C90F8A462C4936
:102210001F035C008046360B6D0D91463F0B640D2D
:10222000DB0F8D421ED08C4216D0002D1ED13043C4
:102230008446002C01D13A4323D06246002A1AD0AA
:102240009A4529D0514602200139084001381CBC6A
:1022500090469946A246F0BD39001143E5D00220D0
:102260004042F4E73043FAD1AC420FD0002C0FD1FA
:102270003A43E7D00CE00122013B934318000130C0
:10228000E5E763460020002BE1D0DBE73A43E6D1E7
:102290009A45D7D1A542D5DCA54205DBBE42D1D8AF
:1022A00008D00020BE42D2D25046012301389843C4
:1022B0000130CCE7C845C5D80020C845F4D3C6E7EF
:1022C000FF070000F0B54F464646D6464D00C0B564
:1022D0000E03C90F8A462E491F035C008046360B49
:1022E0006D0D91463F0B640DDB0F8D4218D08C4273
:1022F00011D0002D18D130438446002C1ED13A4312
:102300001CD163460020002B30D0514602200139F9
:10231000084001382AE039001143EAD0022025E0C4
:102320003043FBD1AC4226D0002C26D13A4324D1F5
:102330005146022001390840013817E06246002A60
:102340000FD09A45E1D1A54205DBBE42DDD819D0B8
:102350000020BE420AD25046012301389843013082
:1023600004E00122013B9343180001301CBC90465D
:102370009946A246F0BD3A43D0D19A45C5D1A5426F
:10238000C3DCE0E7C845C0D80020C845E3D3EDE78B
:10239000FF070000F0B55746DE464E464546E0B51D
:1023A000834606000F03480087B092461D003F0B8E
:1023B000400DCC0F002800D16FE0DE4B984238D0A2
:1023C0008023FF001B041F43730F3B430193DA4B31
:1023D0000027994600239B46F60081442B036900A1
:1023E0001B0B52469846490DED0F002900D185E0A0
:1023F000D04B994200D173E04346DA0080231B049E
:1024000013435246CC48520F844613435246002091
:102410006144D20089442100694000918C46012129
:1024200049448A460F2F00D990E0C449BF00CF59D4
:10243000BF465B463B43019300D06AE10223082775
:10244000002681469B46C9E732005846019B6146FB
:102450000091022800D175E0032800D1FEE1012897
:1024600000D02CE100230027002600253F032A0D81
:102470003F0BB34812053A4302401B051343009A31
:102480005B00D1075B080B433000190007B03CBC70
:1024900090469946A246AB46F0BD5B463B4301934E
:1024A00000D12FE1002F00D1A5E13800FEF7F6F9A9
:1024B00003000B3B1C2B00DD96E11D22D31A5A466C
:1024C0000100DA405E4608398F4013008E403B43DE
:1024D00001939C4B00271B1A994600239B467DE7DE
:1024E000414653460B4393498C46E144002B00D0B0
:1024F0001AE102220220174300228CE7134300D185
:102500000DE14346002B00D181E14046FEF7C6F9BC
:1025100002000B3A1C2A00DD72E101004346083933
:102520008B4098461D239A1A5346D3401A004346BF
:10253000134352468A404946081A824989468144D3
:10254000002068E77B4B002700268EE7140C12045E
:10255000120C1100370C3604350C794328008C46D8
:102560002E0060436044834656432100300C804671
:102570005846794340440291844506D988468021D3
:1025800049028C46E044414602913604010C360C67
:1025900000048B4681191E0C1B041B0C03911900AF
:1025A00079438C46280075436544A8465843050C7A
:1025B00045447743A94203D9802149028C466744A8
:1025C000290C8C4639000004000C2D042D186144A0
:1025D000AB4405915946049101990F043F0C080C36
:1025E000390051434243904602008C46090C8B4609
:1025F00062437C4344445C44A04503D980214902A2
:1026000088464244210C884661460904090C8C46E0
:1026100039005943434370437E430F0CF61824049A
:10262000BE19644442448C46B34203D980235B0202
:1026300098464044029B61469846049B37044344B5
:102640009B46AB45AD416B420D0405992D0C8C4664
:102650007F196744FD18A8465D462D19A542A4417F
:1026600093466442A446C344DC448F42BF4198452C
:102670009B4193459241A445A4415B427F421F4345
:10268000360C52426442BF192243BF1862463818C2
:102690004302D20D039913436A020A43501E82413A
:1026A0006146ED0D2A434E023243D90100D4B3E016
:1026B0000126500832400243DE0732435B08224CB9
:1026C0005444002C62DD510709D00F20104004282B
:1026D00005D0101D9042924152429B180200D90130
:1026E00004D580241948E400034054441848844227
:1026F00000DD27E75E075B02D2081F0B6305164368
:102700005B0DB2E6002399460133042700269B4661
:1027100064E60323019781460C279B465EE601226F
:1027200001201743002276E6032303201F4343467C
:1027300071E6C046FF07000001FCFFFF50210210B8
:10274000FFFF0F800DFCFFFFFF030000FFFFFFFEF8
:10275000FE0700000023802700933F030026434B21
:1027600083E6019B3200A446584670E6AC466EE60E
:10277000802701993F0339422DD03B422BD11F4383
:102780003F033F0B00951600384B6EE601252D1BCD
:10279000382D00DD66E61F2D40DC35481C00504416
:1027A000160082408440EE40501E82413443144360
:1027B000EB40620709D00F222240042A05D02200F4
:1027C000141D9442804140421B181A023ED5012339
:1027D0000027002649E68027019B3F031F433F0354
:1027E0003F0B0094214B40E603005A46283B9A4099
:1027F000002601926DE65846FEF750F8203057E665
:1028000003005246283B9A401300002293E65046AC
:10281000FEF744F820307BE6CA4650E71F201E0032
:102820004042041BE640202D03D0124C5444A340E8
:102830001A43501E8241324307260027164009D012
:102840000F200023104014000428B9D122005E0795
:102850005B021F0BD2081643002306E680273F03C6
:102860001F433F033F0B1600004BFEE5FF07000030
:102870001E0400003E040000F8B557464E4645468B
:10288000DE460C000903E0B5490A460F5F003143FC
:102890001E03DB0F760A9B46530F3343C84E650079
:1028A000C000E40FD2006D0DA24681467F0D9C460C
:1028B0009046B74200D1B9E05B46012673409B4683
:1028C000EE1BA34500D183E0002E63DD002F00D076
:1028D000B1E06346134300D123E1731E002B00D007
:1028E000BAE1861A6346B04280410125C91A4042C6
:1028F000091A0B0200D447E149024B0A98464346A5
:10290000002B00D189E14046FDF7C8FF0300083BDA
:102910001F2B00DD7CE120223000D21A4146D0403E
:10292000994002009E400A439D4200DD6AE15D1B22
:102930006B1C1F2B00DD94E1202110003500C91A0B
:102940008E40DA408840DD40711E8E411100072222
:102950002843002506433240002A09D00F23334084
:10296000042B05D0331DB342B641764289191E00AF
:102970000B0200D43DE26A1C914B55056D0D9A4245
:1029800000D119E18F4AF6080A405707520237432F
:10299000120B9BE0002E00D0C5E06E1C7605760D74
:1029A000012E00DC48E16746861ACB1BB042BF41CE
:1029B0007F42B8461F004346FF1A3B00B8461B0241
:1029C00000D55FE137439AD100220024002579E049
:1029D000002E00DCFAE0002F00D18DE0784B9D4204
:1029E00067D0802367461B041F43BC46382E00DC9B
:1029F00052E1634613435A1E93411E18864280419A
:102A0000404209180B0200D4BEE06D4B01359D42D7
:102A100000D1D2E06B4A73080A4001210E401E43E8
:102A20005108D30707221E43324095E71E00164384
:102A300000D045E740E7624B9D423AD0802367468D
:102A40001B041F43BC46382E00DDEBE01F2E00DCCC
:102A50003AE133006746203BDF403B00202E05D0A3
:102A60004027BF1B6646BE40324390464646721E14
:102A700096413343DAE0002B00D114E2634613435E
:102A800000D168E180234E07C008C9081B03064334
:102A9000194208D06046C008184204D163460100BC
:102AA000D2085E071643F3009946C900720F444DE1
:102AB00011434B46DE08424B4F073743CA089D423D
:102AC00000D16EE012036D05120B6D0D0021120393
:102AD000130B0A0D12051A433B4B2D0513402B43D4
:102AE0005B00E4075B082343380019003CBC9046B8
:102AF0009946A246AB46F8BD6346134311D0731EF8
:102B0000002B00D007E18618864280416144404294
:102B1000091801250B0237D502257BE73E006146E7
:102B200091463500C5E75C46002D00D0E1E00B0082
:102B30000343F3D0731C00D1ACE1214B9F4200D181
:102B40003AE1F343382B00DD6FE11F2B00DD8CE110
:102B500020250E00ED1AAE40B0460600AA46DE4023
:102B6000454635432E005546D940A8406346451E8C
:102B7000A8415B1A9C463043161AB2429241634602
:102B80005242991A3D00B4E607223240002A00D092
:102B9000E4E60B4BF6084F073743CA089D4200D0C6
:102BA00090E73B00134300D1A6E180231B031A43A7
:102BB0001203120B024D89E715000022002785E75A
:102BC000FF070000FFFF7FFFFFFF0F80002E00D0F8
:102BD000C7E06B1C5E05760D012E00DCF0E0C84DF1
:102BE000AB4200D1B9E085180A00854289416244B0
:102BF000494251180722CE076D082E43490832403A
:102C00001D00A9E6BF49ED1A114007223240A3E694
:102C1000320028388240002686E63000FDF73EFE6E
:102C2000203073E6634613435A1E9341C61AB042DE
:102C300080414042091A5CE60E006746064317438E
:102C4000002D5ED1002E00D0F3E0002F00D11EE158
:102C50005C46614691462CE7A94FBE427BD01E00E0
:102C6000F1E610001F3DE840202B03D04021CB1A95
:102C70009A401643731E9E410722064332400021AC
:102C8000002583E7161A6346B2428041591A404232
:102C90000B1A98465C4632E61F2E00DDABE020277B
:102CA000BB1B9A4663465746BB40994613004F46A6
:102CB000F3401F433B005746BA40571EBA411343E7
:102CC0006246F240891898E62027BB1B9A46634665
:102CD0005746BB40994613004F46F3401F433B0005
:102CE0005746BA40571EBA4113436246F240891A0A
:102CF0009CE7834B9F425FD080252D04734229437C
:102D000020E7002E0CD1002F00D1D0E05C466146B8
:102D100091467B4DCDE67A4FBE421CD01E0065E643
:102D2000002F18D0C0084E0706438020C9080003B2
:102D3000014208D06346DC08044204D12100DA468F
:102D4000D2085E071643F300994601245346C90092
:102D5000720F11431C406A4DABE61D000022002794
:102D6000B4E6002D59D10B00034300D1D6E6731C05
:102D700000D1B2E0624B9F421ED0F343382B6FDC90
:102D80001F2B00DD97E020250E00ED1AAE40B04667
:102D90000600AA46DE40454635432E005546A8406B
:102DA000D940451EA8418C440643B618964292412C
:102DB000514261443D0025E63D006146914678E67A
:102DC0000B000343002D00D055E6002BF5D06346E1
:102DD000134300D16DE6861886428041614440422B
:102DE000091800220B0200D4D0E6464B01351940E9
:102DF000B2E5B1465DE633006746203BDF403B006D
:102E0000202E05D04027BF1B6646BE403243904669
:102E10004646721E96413343EFE5394B9F42CBD075
:102E200080252D0473422943A8E70843411E8841A9
:102E3000A2E6002F00D13CE66346861ACF1AB042C4
:102E40009B415B42FB1A98461B024ED5161A6346FD
:102E5000B2429241591A5242891A5C4600227BE5DD
:102E600001430E00711E8E419FE71D000E00203DA4
:102E7000EE40B046202B04D04025EB1A9940084381
:102E8000814648464346411E8841184374E6002265
:102E9000002417E6161A6346B2429241591A52426A
:102EA000891A3D0025E561469146154D01E68022CF
:102EB0000024120379E61D000E00203DEE40B046CE
:102EC000202B04D04025EB1A9940084381464E46FA
:102ED0004346711E8E411E4367E7861896429B410A
:102EE00061445B42C9183D008CE547463743CED06C
:102EF00007224146324049E600273A00E6E5C0464F
:102F0000FF070000FFFF7FFF70B50C4E0D031C0391
:102F100049005B002D0B490D240B5B0DB14208D01D
:102F2000064900208B4203D114432000441EA041D7
:102F300070BD05430120002DFAD1F1E7FF07000025
:102F400030B5144D0A034B00120B5B0DC90F002462
:102F5000AB4211DD104CA34210DC802464032243F9
:102F60000E4CE41A1F2C0CDD0D48C31ADA40130076
:102F70005C42002900D11C00200030BD094BCC1858
:102F8000FAE7094DE040AC4663449A40130003431E
:102F9000EEE7C046FE0300001D04000033040000FD
:102FA00013040000FFFFFF7FEDFBFFFF70B500285B
:102FB0002DD0C317C5185D40C40F2800FDF76EFC67
:102FC000154B1B1A5B055B0D0A2815DD0B38854078
:102FD00000222D032D0B002110002D030A0D2D0BB7
:102FE00012052A430D4D1B052A4013435B00E407DD
:102FF0005B082343190070BD02002900153291407F
:103000000A000B21081AC5402D032D0BE3E700240D
:10301000002300250022DEE71E040000FFFF0F80D2
:1030200010B5041E25D0FDF739FC144B1B1A5B05A7
:103030005B0D0A2812DD0B38844000222403240B88
:103040000021100024030A0D240B120522430C4C0E
:103050001B05224013435B00590810BD02002100EC
:10306000153291400A000B21081AC4402403240B96
:10307000E6E7002300240022E2E7C0461E04000029
:10308000FFFF0F8010B5002903D1FDF707FC2030AA
:1030900002E0081CFDF702FC10BDC046F0B54E462C
:1030A0005746DE464546E0B50F00002183B00600D6
:1030B0008946002F06DA3900002746428F41012158
:1030C00049428946002B07DA4946C9431000894620
:1030D0001900002342428B4134003D00924698463D
:1030E000BB4269D866D041465046FFF7CBFF8346C6
:1030F00039003000FFF7C6FF5B461B1A9C46203B99
:103100009B4600D575E05146584681400B0051461C
:10311000604681400A00BB4261D85ED034003D0069
:103120005946A41A9D41002900DA7AE000210020C6
:1031300001260090019159468E4001966146012674
:103140008E4061460096002950D0D90756085F0886
:103150000E4363460EE0AF4201D1A6420CD8A41B39
:10316000BD41012124196D410022013B64185541E4
:10317000002B06D0AF42EED9013B24196D41002B44
:10318000F8D1009801995B4600196941002B3DDB9D
:103190002E00DE4063462C00DC405B46002B4BDB00
:1031A00034005D46AC4023006446A6403200801ADD
:1031B000994103E0B24296D9002000214B46002BF2
:1031C00004D003000C0000215842A14103B03CBCD4
:1031D00090469946A246AB46F0BDB1429ED9002129
:1031E00000200090019161460029AED1009801991C
:1031F000E4E72023624651469B1AD940404600919D
:1032000061468840030000990B4380E76246202313
:103210009B1A2A009A40260013006246D6401E439D
:10322000B8E7614620260127761A00200021F740E2
:1032300000900191019781E767462023624635009F
:10324000BC409B1ADD4023002B43ADE7024670B51E
:103250000A4392072AD11E4DEE0104C808C9541B27
:103260009443344017D0D0B2D9B2401A210601435A
:1032700010D190B299B2401A210401430AD1100230
:103280001902000A090A401A2102014302D1100E54
:10329000190E401A70BD9A42DFD010BA19BA88428E
:1032A00001D9012070BD0020C04370BD02780B78A9
:1032B00001300131002A09D09A4207D102780B78F7
:1032C00001300131002A01D09A42EFD0D01A70BDEE
:0432D00001010101F6
:1032D400F8B505000E000024094FA300D9590029B0
:1032E4000CD02800FFF7B0FF002802D13460013071
:1032F400F8BD0134102CF0D10020F9E70800F7E7FD
:04330400340200206F
:10330800084B034004D51020013B404203430133DE
:1033180000220120934203DD400080B20132F9E728
:083328007047C0460F00008051
:1033300000231A0010B5C15C5C00A14001330A43B0
:08334000102BF8D1100010BDA4
:1033480082B0F7B50026099308921CAB1D880400CB
:10335800B54229D02B120370457018A8FFF7E4FF77
:10336800030EA370030CE370030A23710623607134
:10337800300008AE0122154211D082009446002286
:10338800E11801916746D1004942BF5918310F41F0
:103398003900019FB9540132042AF3D104330130B2
:1033A8006D081028E6D1DEB23000FEBC08BC02B0C1
:0233B8001847B4
:1033BC00F7B50C002E210700019219F07FFE051EB7
:1033CC002ED00600280019F0E3FE731B984203D997
:1033DC00737833700136F5E7019B1B194033187075
:1033EC002000FFF78BFF0500104E1149030022004F
:1033FC0030000FF0D7F8019B380050331A88A40026
:10340C0015431D8017F068FF019BE050380017F042
:10341C0063FF3A000300074930000FF0C3F8F7BD13
:10342C00019B1B1940331870DAE7C0465CA20020E0
:08343C0090210210A2210210F0
:10344400F0B50A2189B007000392002519F03AFE6D
:103454000400A84224D03B4E3B4930000FF09CF8B6
:10346400049500232370049B3A000133374930004C
:1034740004930FF09BF83A21380019F023FE282119
:103484000590380019F01EFE29210500380019F0B6
:1034940019FE059B0700002B01D0002D03D1002548
:1034A400280009B0F0BD2A21280019F00BFE0028DD
:1034B40000D0070000232B703B70059F07A901373C
:1034C4003800FFF705FF002813D0214930000FF022
:1034D40063F801353A001F4930000FF067F82A00FD
:1034E4001D4930000FF062F8039A07992800FFF78E
:1034F40063FF671C0A21380019F0E4FD041EB0D1F3
:10350400049A164930000FF051F80134220003994F
:103514003F328A5CA3000092043BCB58220010493E
:1035240030000FF043F8102CEFD1039B01255033EA
:103534001C88002CB4D10B4930000FF02DF8250065
:10354400AEE7C0465CA20020B8210210C7210210D9
:10355400E721021019220210242202102F22021045
:083564004C2202106C2202103F
:10356C0010B50FF0BFF8014B186010BD0CC2002055
:10357C00F7B50FF0B7F8E121174C0600490220000F
:10358C0000270DF0C1FB20000DF014FC051E12D11C
:10359C000FF0A8F801950090009A019B921BBB417B
:1035AC001100002B07DC02D10C4B994203D864208C
:1035BC000FF0A8F8E7E700F045FA012117200FF00B
:1035CC00CBF8002117200FF005F900F005F904499C
:1035DC0020000EF0DDFFF7BD5CA200208713000079
:0435EC00E8240210BD
:1035F00030B591B000F04EFA1D4D28000DF00CFDD5
:1036000000281EDD28000DF08FFD1A49020004007D
:1036100028000EF0CDFF1848732C02D0632C04D183
:10362000164800F0E1F911B030BD742CFBD13A22FC
:10363000134901A819F0A2F93A2101A800F02EF9C6
:10364000F1E70FF055F80F4C2368C01A0E4B1B68BA
:103650009842E8D904F06CF8012806D1074800F038
:10366000C3F90FF045F82060DDE704F007F8F8E74C
:103670005CA20020DB24021078020020E624021065
:0C368000981E02100CC2002084020020E2
:02368C00704785
:08368E0010B50368984710BD58
:103698001FB50168037942790291017A01910621E7
:1036A800415E0348009103490EF07EFF05B000BD5E
:0836B8005CA200202426021090
:1036C00010B5044A002800D1034A044904480EF00A
:1036D0006FFF10BDF2250210FA250210012602101C
:0436E0005CA20020C8
:1036E40010B5024902480EF057FF10BD1226021011
:0436F4005CA20020B4
:1036F80010B5084C084920000EF04CFF074920007F
:103708000EF048FF064920000EF044FF03F0B2FF18
:1037180010BDC0465CA20020A7260210B9260210E0
:04372800D62602108F
:10372C00084B10B51A5C084908480EF03BFF002303
:10373C0007480371074B1B784371074B197803F04B
:10374C00FBFF10BD0F270210F62602105CA2002012
:0C375C0088020020B9020020CEE000200E
:0A37680010B50C2219F006F910BD8F
:1037740010B50A4C0A4920000EF00EFF094B1878C8
:1037840004F024F8002804D1FA2080000EF0BEFFD3
:1037940010BD054920000EF0FFFEF9E75CA20020F1
:0C37A40065260210CDE0002080260210F7
:0E37B000C36810B5002B01D09B68984710BD70
:1037C00010B50400064B036011F06AFF200028309A
:1037D000FFF7EEFF200012F075F8200010BDC04684
:0437E000803802101B
:1037E40037B500F037FA1F4803F0A4FE1E4803F073
:1037F400ABFE1E4803F0B2FE1D4A1E4B12781B7826
:1038040001921D4A1D481278017800924278047989
:1038140012020A43817809040A43C1780906114354
:10382400427917481202224304F00EF8154C021E86
:1038340006D0154920000EF0B9FE002528003EBD33
:10384400022003F095FE1149051E07D010490222FB
:1038540020000EF0ABFE03F00FFF0E4920000EF027
:103864009BFEEBE7CB020020D3E00020BB0200204C
:10387400BA020020B8020020CDE000201E2602106B
:10388400940200205CA20020042502101A250210D4
:08389400322502105325021039
:10389C00F7B5244C01900E00200023490EF078FE61
:1038AC0003F040FF0700012805D0204920000EF04E
:1038BC006FFE0320FEBD1E4920000EF069FE0220A3
:1038CC00642EF7DC1B4B1C4D1B78320001992868C9
:1038DC006B7119F04DF83200184920002E710EF062
:1038EC0061FE174B2800197803F026FF15490500D7
:1038FC0020000EF04DFE002D09D1134B13491A6810
:10390C00200001321A600EF04DFE2800D2E7104A5A
:10391C00104913682000013313602A000EF042FE98
:10392C003800C7E75CA20020632502107025021046
:10393C007E250210B9020020880200208D2502107D
:10394C00CEE00020B0250210D0A60020B725021032
:08395C00BCA40020D3250210D9
:1039640010B5054C200011F0E9FE044A044920007A
:1039740014F074FE10BDC04658920020300200209E
:04398400C137001037
:0A39880010B503685B68984710BD96
:1039940037B53025062801D84019C5B207220D498C
:1039A400684618F0E9FF0C4C20000DF01EF868463C
:1039B40019F0F2FB694602002000FFF7E3FF200044
:1039C4000DF025F82B006A46044905480EF0EEFD7B
:1039D40037BDC046D21E0210249C002013270210BB
:0439E4005CA20020C1
:1039E800F7B500220500124C124B20001A700CF09B
:1039F800FAFF114E022231002000FFF7C1FF280014
:103A080019F0C8FB290002002000FFF7B9FF0B4F8F
:103A1800032239002000FFF7B3FF20000CF0F5FF68
:103A280000972B003200064906480EF0BDFDF7BD91
:103A3800249C0020CCE00020C1270210BD270210E2
:083A4800A82702105CA2002077
:103A500010B5012116200EF085FE012116200EF072
:103A6000BFFE0A4C01230622200000210CF0F1FFCA
:103A70002000C8210EF0FEFD9621054A49002000D5
:103A80000CF032FF20000CF0DBFF10BD249C002066
:043A9000110300001E
:103A9400F0B5474FD3B038000CF02BFF002863D0AB
:103AA400444B454E1C78454D002C65D0002438AB62
:103AB4001C80E22340226B44210024A81C7018F0CF
:103AC400EDFF1022210034A818F0E8FF38003C4B29
:103AD400320021210EF0CEFD07003454BC4206D042
:103AE400325D384928000EF061FD0134F6E722000A
:103AF400354928000EF05AFD24AA31493000FFF759
:103B04009FFC00282DD04C2226A939AF684618F016
:103B140033FF259B249A64213800FFF713FC2B49BB
:103B24003A220731060015A818F026FF3A2115A8F5
:103B3400FFF7B2FE04000200002E17D0002815D1B2
:103B4400234928000EF028FD3200224928000EF0F7
:103B54002DFD3A5D2049280001340EF027FDA642D0
:103B6400F7DC0023134A137053B0F0BD33001B4934
:103B740028000EF01BFDF4E73800114B3200212120
:103B84000EF078FD07003454BC4206D0325D0D4976
:103B940028000EF00BFD0134F6E722000A49280044
:103BA4000EF004FD0520FFF7F3FE0123DAE7C0461B
:103BB400249C0020CCE0002043CD00205CA2002007
:103BC400881300003527021038270210D21E021075
:103BD4004927021063270210752702107F2702105D
:103BE40010B586B010F086FD0124074B64421860BE
:103BF4002200012103A80EF057FE044B9B6E019393
:103C040098470EF097FDF3E77CBF00201C2C0210B0
:103C14001FB50D4B082203930C4B002101A8009300
:103C240018F03CFF0A4C6946200015F035FA039B56
:103C3400002B02D09B68684698472021200015F08D
:103C4400EFFA012004B010BDF8240210E53B001087
:043C5400A4BF0020E9
:103C5800F7B50A221F4B0124DA600132DA6101321A
:103C68001A6101329A6001325A6001329A61103A3F
:103C78001A621A325A621A00283214701A0029324B
:103C880014701A0000252A3215701D2202265A6166
:103C98001A001E602C322B3314701D7000F0B2F91C
:103CA80000F000FB6B46E8209F1D32003900C00081
:103CB800DD8000F04DFC3B88074A934203D0074A59
:103CC8002000934204D1FFF7A1FF01246040C0B255
:103CD800FEBDC0464CBF0020142400003444000040
:103CE80037B50222184B00241A60033A1A625A6246
:103CF8001A00283214701A00293214701A002A3255
:103D080014701A002B3214701A002C321470072207
:103D18000E4D2D331A700E4B21002C610D482B606F
:103D280015F00EF90C4815F0A7F88022280023009A
:103D380000945201202115F0A3F92800074A0849E8
:103D480014F08AFC37BDC0464CBF0020A4BF002039
:103D580054470210E4BF0020F8BF002030020020C2
:043D6800CD910110E8
:043D6C0080207047FC
:103D700010B588B0040068460CF0E2FE6B466A4657
:103D8000DB79D27B9B186A46D27D9B186A46D27F2C
:103D90009B18E3716A466B46927B9B799B186A4637
:103DA000927D9B186A46927F9B18A3716A466B4668
:103DB000527B5B799B186A46527D9B186A46527FFC
:103DC0009B1863716A466B46127B1B799B186A4687
:103DD000127D9B186A46127F9B1823716A466B46B8
:103DE000D27ADB789B186A46D27C9B186A46D27ED0
:103DF0009B18E3706A466B46927A9B789B186A46DA
:103E0000927C9B186A46927E9B18A3706A466B460A
:103E1000527A5B789B186A46527C9B186A46527E9F
:103E20009B1863706A466B46127A1B789B186A4629
:103E3000127C9B186A46127E9B18237008B010BD36
:043E400000207047A7
:023E44007047C5
:023E46007047C3
:023E48007047C1
:103E4C0010B502480CF0BCFC10BDC046A09C002074
:0E3E5C0010B50400182114F049FE200010BD1E
:103E6C0010B5064C0A230B220C2120000CF0DAFCB6
:103E7C00034A0449200014F0EDFB10BDA09C002067
:083E8C0030020020493E001045
:103E940070B586B010F02EFC012501260F4B6D4243
:103EA40018602A00002103A80EF0FEFC039B082BD7
:103EB40010D10024049B01933300A340019A1A40BB
:103EC400934204D1064A63019B189B6998470134C5
:103ED4000A2CEFD10EF02EFCE3E7C04674C6002096
:043EE400D097002053
:103EE800044B10B51868002802D001210EF0CEFC52
:083EF80010BDC04674C6002095
:103F0000044B10B51868002802D002210EF0C2FC44
:083F100010BDC04674C600207C
:103F1800044B10B51868002802D004210EF0B6FC36
:083F280010BDC04674C6002064
:103F3000044B10B51868002802D008210EF0AAFC26
:083F400010BDC04674C600204C
:103F4800044B10B51868002802D010210EF09EFC12
:083F580010BDC04674C6002034
:103F6000044B10B51868002802D020210EF092FCF6
:083F700010BDC04674C600201C
:103F7800044B10B51868002802D040210EF086FCCA
:083F880010BDC04674C6002004
:103F9000044B10B51868002802D080210EF07AFC7E
:083FA00010BDC04674C60020EC
:103FA800044B10B51868002803D0802149000EF092
:083FB8006DFC10BD74C6002071
:103FC000044B10B51868002803D0802189000EF03A
:083FD00061FC10BD74C6002065
:103FD80010B5094C094B403C2360200011F05CFBF4
:103FE80020002830FFF7E0FB200011F067FC044BAD
:103FF8009C42EFD110BDC046909B00208038021033
:0440080010990020EB
:10400C001FB50A2100220F484B01C31A4533FF3359
:10401C0001391A700029F7D10B4B082203930B4B73
:10402C0001A8009318F036FD094C6946200015F0E4
:10403C002FF86846FFF7B6FB2021200015F0ECF8AE
:10404C001FBDC046D0970020F8240210953E0010EA
:04405C00B8C50020C3
:104060000023F0B50D4A5F01BA181479002C10D165
:1040700001259D40094E5471BD5101251571FA2548
:104080008668AD00754391619560D46003700161ED
:10409000F0BD01330A2BE5D1FAE7C046D0970020E6
:1040A00010B50078024B8001C01811F0F9FA10BD6C
:0440B0001099002043
:1040B4000278054B52019B18FA22920051431800D2
:0C40C40099600023C3607047D097002073
:0840D00010B50EF00DFB10BD50
:0C40D80010B504000EF008FB001B10BD2A
:1040E40010B50400002902D1C160200010BD044BAA
:1040F4000822C36002C0002118F0D0FCF5E7C046D6
:04410400F824021089
:104108001FB504780A4BA200D1586846FFF7E6FFAE
:10411800084B62010848A4019B189A68DB682018BC
:10412800694611F0E8FA6846FFF73EFB1FBDC04636
:0C413800D4020020D09700201099002035
:1041440073B50024194E1A4B2100346119483360A9
:1041540014F0F8FE184814F091FE80222300520156
:1041640020213000009414F08DFF144D14492A00CE
:10417400300014F073FAA0212200124849002318D9
:1041840020341A601A715A718C42F8D1A026002486
:10419400B6000D482018403411F0D0FAB442F8D1DA
:1041A4002A000A49002014F059FA73BDB8C500204A
:1041B40054470210F8C500200CC60020300200202D
:1041C400CD910110D097002010990020D93F001004
:1041D40010B5044B010058690422C0B20CF044FD30
:0841E40010BDC0464CBF0020D5
:1041EC0010B50D4C01216368D8B20EF0B5FA6368B6
:1041FC000021D8B20EF0EEFA0A200EF083FA6068B5
:10420C000121C0B20EF0E6FA14200EF07BFA002267
:10421C00024B1A7010BDC0464CBF0020CBE00020F2
:10422C0010B5074C074B9869C0B20EF001FB012882
:10423C0004D1013C0EF066FA002CF3D110BDC0463F
:08424C00E90300004CBF002053
:0A42540010B502210BF0BAFC10BDFA
:10426000034B186802384342584101307047C0463A
:044270004CBF00201F
:1042740070B50C4C23002C331D78606A002D0ED1D0
:10428400431C0BD0236A013308D0C0B201210EF0C5
:10429400A5FA2900206AC0B20EF0A0FA70BDC0B21F
:0842A4000121F9E74CBF0020E5
:1042AC0070B50025FFF7CCFD254C264B01211D7068
:1042BC00A368D8B20EF050FAA3680121D8B20EF060
:1042CC0089FAA3692900D8B20EF046FA636929006D
:1042DC00D8B20EF041FA63680121D8B20EF03CFA64
:1042EC0063680121D8B20EF075FA23002C331B78C9
:1042FC00206AAB4212D0431C03D0C0B229000EF08E
:10430C002BFA636A0121D8B20EF026FA606A0021FA
:10431C00C0B20EF05FFAFFF763FF70BD431CFAD01A
:10432C00636A0133F7D0C0B201210EF015FA606A4E
:10433C000121C0B20EF010FAFFF796FFEBE7C04672
:08434C004CBF0020CBE0002073
:1043540010B50A4C23002C331978606A002908D15F
:10436400431C0AD0236A013307D0C0B20EF036FAD8
:10437400206AC0B201210EF031FA10BD4CBF0020FA
:10438400034B044A1A6000221A7101325A717047B1
:0843940088C5002080841E0092
:10439C0070B50025124B1D70FFF74EFD114E290014
:1043AC00B368D8B20EF016FA0F4C104B200006CBA7
:1043BC000CF0E7F9C02120000CF094F92900200042
:1043CC000CF090F920000CF0D2F9B0680121C0B2C9
:1043DC000EF000FAFFF724FFFFF72FFD70BDC0466B
:1043EC00CBE000204CBF0020A09C002088C5002002
:1043FC00F7B516000C0001900BF0C6F9134F002115
:10440C00BB68A619D8B20EF0E5F9114D114B280076
:10441C0006CB0CF0B6F9019928000CF063F9B44204
:10442C0005D0217828000CF05DF90134F7E728005D
:10443C000CF09DF9B8680121C0B20EF0CBF9019BCC
:10444C00842B01D0FFF7ECFEF7BDC0464CBF00201B
:08445C00A09C002088C500208F
:10446400F7B517000C0001900BF092F9144E0021DF
:10447400B368E719D8B20EF0B1F9124D124B280007
:1044840006CB0CF082F9019928000CF02FF90021D9
:1044940028000CF02BF9BC4206D0002128000CF0B7
:1044A40025F920700134F6E728000CF064F9B068AF
:1044B4000121C0B20EF092F9FFF7B6FEF7BDC04677
:0C44C4004CBF0020A09C002088C50020F8
:1044D000F7B506000C0001920BF05CF9164F0021B5
:1044E000BB68D8B20EF07CF9144D154B280006CBF2
:1044F0000CF04DF90D2128000CF0FAF8310A2800D3
:104500000CF0F6F8F1B228000CF0F2F8019BE61876
:10451000B44205D0217828000CF0EAF80134F7E71E
:1045200028000CF02AF9B8680121C0B20EF058F941
:10453000FFF77CFEF7BDC0464CBF0020A09C0020CA
:0445400088C500200A
:1045440007B56B46D971073301221900FFF7BEFF87
:0245540007BDA1
:10455800F7B506000D0001920BF018F9184F00216D
:10456800BB68D8B20EF038F9164C174B200006CBB2
:104578000CF009F91D2120000CF0B6F8310A2000D2
:104588000CF0B2F8F1B220000CF0AEF800212000D7
:104598000CF0AAF8019BEE18B54206D000212000C5
:1045A8000CF0A2F828700135F6E720000CF0E1F8CD
:1045B800B8680121C0B20EF00FF9FFF733FEF7BD5E
:0C45C8004CBF0020A09C002088C50020F3
:1045D40013B56B46DC1D01222100FFF7BBFF2078D9
:0245E40016BD02
:1045E800F7B517000C0001900BF0D0F8134E00211E
:1045F800B368E719D8B20EF0EFF8114D114B280047
:1046080006CB0CF0C0F80E2128000CF06DF80199CB
:1046180028000CF069F8BC4205D0217828000CF07D
:1046280063F80134F7E728000CF0A3F8B06801211B
:10463800C0B20EF0D1F8FFF7F5FDF7BD4CBF002072
:08464800A09C002088C50020A1
:10465000F7B517000C0001900BF09CF8164E0021E6
:10466000B368E719D8B20EF0BBF8144D144B28000C
:1046700006CB0CF08CF81E2128000CF039F80199BB
:1046800028000CF035F8002128000CF031F8BC426D
:1046900006D0002128000CF02BF820700134F6E73A
:1046A00028000CF06AF8B0680121C0B20EF098F84A
:1046B000FFF7BCFDF7BDC0464CBF0020A09C00200A
:0446C00088C5002089
:1046C400F0B5E34B87B01F780190002F00D068E16C
:1046D400FFF7AAFDDF4D3900AB68D8B20EF07EF8C3
:1046E400DD4CDE4E2000726831680CF04EF81D215E
:1046F40020000BF0FBFF052120000BF0F7FF8021C9
:1047040020000BF0F3FF390020000BF0EFFF39001D
:1047140020000BF0EBFF029020000CF02CF8AB68AB
:104724000121D8B20EF05AF8FFF77EFDAB683900CC
:10473400D8B20EF053F87268316820000CF025F8F6
:104744001D2120000BF0D2FF052120000BF0CEFF2D
:10475400832120000BF0CAFF390020000BF0C6FFB4
:10476400390020000BF0C2FF039020000CF003F886
:10477400AB680121D8B20EF031F8FFF755FDAB68F4
:104784003900D8B20EF02AF87268316820000BF0B4
:10479400FCFF1D2120000BF0A9FF052120000BF0D8
:1047A400A5FF842120000BF0A1FF390020000BF0AD
:1047B4009DFF390020000BF099FF049020000BF0BE
:1047C400DAFFAB680121D8B20EF008F8FFF72CFD30
:1047D400AB683900D8B20EF001F872683168200075
:1047E4000BF0D3FF1D2120000BF080FF05212000DA
:1047F4000BF07CFF852120000BF078FF39002000AE
:104804000BF074FF390020000BF070FF05902000BE
:104814000BF0B1FFAB680121D8B20DF0DFFFFFF759
:1048240003FDAB683900D8B20DF0D8FF7268316867
:1048340020000BF0AAFF0D2120000BF057FF0521EB
:1048440020000BF053FF802120000BF04FFF0823C2
:10485400029920001943C9B20BF048FF20000BF065
:104864008AFFAA680121D0B20DF0B8FFFFF7DCFC83
:10487400AA683900D0B20DF0B1FF72683168200027
:104884000BF083FF0D2120000BF030FF05212000E9
:104894000BF02CFF832120000BF028FF0823039941
:1048A40020009943C9B20BF021FF20000BF063FFF5
:1048B400AA680121D0B20DF091FFFFF7B5FCAA68F8
:1048C4003900D0B20DF08AFF7268316820000BF015
:1048D4005CFF0D2120000BF009FF052120000BF0E7
:1048E40005FF842120000BF001FF08230499200018
:1048F4009943C9B20BF0FAFE20000BF03CFFAA6802
:104904000121D0B20DF06AFFFFF78EFCAA683900CE
:10491400D0B20DF063FF7268316820000BF035FFF0
:104924000D2120000BF0E2FE052120000BF0DEFE3D
:10493400852120000BF0DAFE082305992000994315
:10494400C9B20BF0D3FE20000BF015FFAB680121B8
:10495400D8B20DF043FFFFF767FCAB683900D8B25B
:104964000DF03CFF06CE20000BF00FFF0D212000C0
:104974000BF0BCFE092120000BF0B8FE2021200022
:104984000BF0B4FE062120000BF0B0FE20000BF06B
:10499400F2FEA8680121C0B20DF020FF01232C4AC9
:1049A4001370019B2B4D2D4E2B4C002B58D0FFF731
:1049B4003BFCAB680021D8B20DF010FF726831687F
:1049C40020000BF0E2FE1D2120000BF08FFE0921D8
:1049D40020000BF08BFE202120000BF087FE00212D
:1049E40020000BF083FE002120000BF07FFE070067
:1049F40020000BF0C0FEAB680121D8B20DF0EEFE32
:104A0400FFF712FCAB680021D8B20DF0E7FE06CE2A
:104A140020000BF0BAFE0D2120000BF067FE0921E7
:104A240020000BF063FE202120000BF05FFE082124
:104A34003943C9B220000BF059FE20000BF09BFE55
:104A4400A8680121C0B20DF0C9FE07B0F0BDC04690
:104A5400CBE000204CBF0020A09C002088C5002093
:104A6400FFF7E2FBAB680199D8B20DF0B7FE7268AC
:104A7400316820000BF089FE1D2120000BF036FE6A
:104A8400092120000BF032FE202120000BF02EFE25
:104A9400019920000BF02AFE019920000BF026FE5C
:104AA400070020000BF067FEAB680121D8B20DF0BF
:104AB40095FEFFF7B9FBAB680199D8B20DF08EFEF5
:104AC40006CE20000BF061FE0D2120000BF00EFE3F
:104AD400092120000BF00AFE202120000BF006FE25
:084AE400F7213940A6E7C046A6
:104AEC0010B50A4C23002A331B78002B02D001206E
:104AFC00FFF7E2FD23002C331B78002B04D0606AF7
:104B0C000121C0B20DF066FE10BDC0464CBF0020A6
:104B1C0010B50A4C23002A331B78002B02D000203E
:104B2C00FFF7CAFD23002C331B78002B04D0606ADE
:104B3C000021C0B20DF04EFE10BDC0464CBF00208F
:104B4C0037B515000E4A01AB2C32127804009A705E
:104B5C0009221A700B4A59701278002A01D00A22C5
:104B6C001A70094A1900107802F0D6FF641983B242
:104B7C000020A34203D3FF23A3424041C0B23EBD59
:0C4B8C00B09B00208DCA0020F3C6002062
:104B980070B50024274B284A1C60284B1C60284B02
:104BA8001C60284B1C7001231370274A1370274A76
:104BB8001470274A1470274A1380274A1470274A0A
:104BC8001470274A1370274A274B1178901C1970C4
:104BD80051785970C07F991CC8771900100024318A
:104BE800243060C860C1100019002C3000782C31C6
:104BF8000870100019002D3000782D310870116BE5
:104C0800526B19635A63194B0221187802F0F1FFAD
:104C1800174B1C70174B1C70174B1C70174B1B68DD
:104C2800002B02D05C629B6AFAE7154A1370154A9A
:104C3800137070BD3CA50020FC020020D4A5002004
:104C48002CA5002018CC0020FE0200208BCA0020D2
:104C58003ACD00209EC600201BCC002000CD0020AD
:104C6800FD020020E89B0020B09B0020F3C6002036
:104C78008ECB00208ECA002017CC00206CA6002006
:084C880032CD0020E9C8002034
:104C900010B50C48FFF704FA0B4B1B78002B07D01C
:104CA00001220A4B1A700423094A116899431160C2
:104CB000084B1B78022B04D1074A0E3311780B43A3
:104CC000137010BDBCA500208ECB00208BCA002025
:0C4CD000209C002012CC0020F2C6002026
:104CDC00F0B587B0FFF7F6F9384B05001B78022BBF
:104CEC0003D0374B1B6B01939847364B364C1B78D4
:104CFC00002B52D0354B364E19683000FFF7D4F9E3
:104D0C003000FFF7FBF9334F334E38003168FFF7B3
:104D1C00CBF93800FFF7F2F9284B1B78022B03D0A4
:104D2C002E4B1B78002B0FD0122303A90B702C4B8E
:104D3C00187802F0F1FE31682A4E41183000FFF766
:104D4C00B3F93000FFF7DAF92278274B120733D585
:104D5C00264A1278002A2FD101321A70244B254A88
:104D6C001B7804A913700B70234B4D601B78013B0F
:104D7C005A4253414B701A4B187802F004FF1F4BE8
:104D8C001D60164B1B78002B05D11D4A53701D4A14
:104D9C0013780133137007B0F0BD194A5370042215
:104DAC00124B5A702378002B01D10133237010233E
:104DBC00227813432370C7E70022CEE712CC0020E1
:104DCC001C2C0210FD020020F2C600206CA5002055
:104DDC0074A500208CA5002070A500208ECB00208F
:104DEC00F3C60020BCA5002015CC0020F0A40020A8
:104DFC0032CD0020E9C80020F1C60020B0A600206A
:084E0C00DCA4002018CC0020FA
:104E1400044B10B59B6B002802D10800984710BDC5
:084E24000020FBE71C2C02102A
:104E2C0070B51C48FFF736F91B4D1C4B2A001C4C67
:104E3C001B782D3223706B6A636012782274194AC6
:104E4C00127862740122E274174A10780A281BD077
:104E5C000B281BD0092802D1144A9B186360144BF1
:104E6C001B78022B14D00023124A21000432A374A5
:104E7C0003F008F8002806D0A07CE968FFF7C4FF0F
:104E8C00E27C0D4B1A7070BD0C4AE6E70C4AE4E765
:104E9C000123E9E78CA50020B09B002032CD002037
:104EAC00ECA500208DCA0020F3C60020C088E4FFCA
:104EBC0012CC002054A5002021CD0020C04A9BFF1D
:044ECC0020F9A5FF25
:104ED0000B4B07B51B78022B0ED00A4B1B6B0193B3
:104EE00098470223084A5370084A5370084A0E3301
:104EF00011780B43137007BDFFF798FFF1E7C04629
:104F000012CC00201C2C0210DCA40020F0A40020F5
:044F1000F2C60020C5
:104F140037B51548FFF7C2F80023144A144C137030
:104F2400144A154D12782270AA1CD27FE2702A000E
:104F34002D321278A3742274E374104A104B127841
:104F44001B786274022B03D10E4B5B6B0193984761
:104F54000D4B0E4A18780432210002F097FFE968DD
:104F6400A07CFFF755FF37BD74A5002021CD00209C
:104F7400D8A5002032CD0020B09B00208DCA00208F
:104F840012CC00201C2C0210F3C6002054A50020D3
:104F940013B5194C2378022B1FD0184B1B6B0193AC
:104FA4009847174B1A78174B1978174B002917D1C4
:104FB400002A02D0154A0331517003225A70144B4F
:104FC4001868FFF787F8134B1B68984204D3102323
:104FD400114A11780B43137013BDFFF725FFE0E767
:104FE400002A02D00421094A517004225A702378FD
:104FF400022BECD1F0E7C04612CC00201C2C02108E
:105004008ECB002021CD0020F0A40020DCA40020C1
:0C501400B0A6002070A50020F2C600200D
:10502000174B07B51B78022B1FD0164B1B6B019338
:105030009847154B1A78154B1978154B002917D13D
:10504000002A02D0134A0531517005225A70124BC2
:105050001868FFF741F8114B1B68984204D31023DE
:105060000F4A11780B43137007BDFFF7DFFEE0E72F
:10507000002A02D00621074A517006225A70EEE734
:1050800012CC00201C2C02108ECB002021CD002041
:10509000F0A40020DCA40020B0A6002070A5002011
:0450A000F2C6002034
:1050A400F0B504000E008FB003920793039B9E4259
:1050B40000D3C5E1A05D751C0238EDB2082800D903
:1050C400BEE1FBF7D9F9090015008700A400E6004A
:1050D4000D013C015C0196010022DA4B5A70615DBE
:1050E400B21CD2B21972A25C0336F6B25A72DDE770
:1050F40000230B2706AA53729372BF1809AA1370D0
:105104003B706B1EE3180B93039B0BA901335B1BD2
:105114000B71CD4BCD4E1B7806A88B7133002C330D
:105124001B784B717378CB7133780B72C84BDB7F70
:105134004B72C84B1B7801929C460A2306AA9B1803
:10514400092200971218604602F013FFC34304902B
:105154005B0708D106AB5B7ABD4A737006AB9B7ADA
:1051640033703B78D37709AB1E7805213000FBF709
:105174008DF98021B84A49421278B84F8A1A002121
:10518400D2B2013A0692B64AC3B2BC4610780A00BB
:105194000593B44B1B78059F974211D0069FBB42E1
:1051A4000BDA60460327C7546F46591C3F7CC9B2CB
:1051B4004754012001000233DBB20132D2B2EAE7E4
:1051C400002903D0A74A1370A54B1870013EAE19ED
:1051D400F6B26BE70121635DA34A802513700A00D0
:1051E4009A40A24B9F481A809B4B6D421B780278D1
:1051F400EB1A0236DBB2F6B2934200D856E75318E4
:1052040003700420954B9854954B19704EE7635DD9
:1052140007251A110BAF2A407A700F2213403B70F6
:10522400B31CDBB2E15C301DF31CC0B2DBB2E25C48
:10523400235C12021B04134364220B4353430C9359
:10524400844B3900187802F0D1FE0536F6B20540D9
:10525400072D09D17D4B39781A00283211707A68EC
:105264005A627A780233DA7780257B4A7D4912784C
:105274006D42AA1AD2B20B78013A934200DB15E7C9
:10528400764A8535D5549D1C0133DBB20D70D0545C
:1052940022E0774BFF201B68002B03D01B68002BF8
:1052A40000D0984780266C4A764212786D49B21A2B
:1052B400D2B20B78023A2E00934200DBF6E60625C2
:1052C400664AD5545D1CEDB25055D81C0870694629
:1052D4000233097FDBB299540122614B1A70E5E66F
:1052E400635D09A90B71F31CDBB2E55C331DDBB212
:1052F400E35C2D021B042B43B51CEDB2655D701DF0
:105304002B4364256B430B930023C0B20C93235CA3
:105314000BAA13724F4B0992187802F09EFE4E4A64
:1053240050491278E43DAA1AD2B20B780636013AF3
:10533400F6B2934200DBB9E6484A8735A2E70F226A
:10534400635D0236F6B21A4000D10132FA23FA2123
:1053540080209B0053433D4A890013615B185361CD
:105364003D4B40491B784042C31A0A78DBB2934252
:1053740000D89BE6531C0B70384B0821ABE7002286
:10538400635D0BAD02362A702032F6B21A402ED17C
:105394006A70DA0601D501222A700F221340AB701D
:1053A4002C4B2900187802F08FFE431C00D17DE6B7
:1053B400264F2A783B002C331A703B006A782D3331
:1053C4001A70AB782B4AD05CFCF77CF838638020E9
:1053D400214B24491B784042C31A0A78DBB293421A
:1053E40000D863E6531C0B701C4B092173E70122A0
:1053F400CEE7635D0BA90B70B31CDBB2E25C371D17
:10540400F31CDBB2FFB2E05CE35D00021B04034368
:1054140013436422802553434B600E4B6D4218782E
:1054240002F089FE0C4A0F4912780B78AA1A053645
:10543400D2B2F6B29A4200D838E6084A8A3521E751
:105444000FB0F0BDF0A4002039CD0020B09B0020A7
:10545400B19B0020F3C6002000CD002091CB00209A
:1054640017CC00201BCC00203ACD00209EC6002083
:0854740028A60020C427021045
:10547C00F0B58BB0049310AB05921A8800230C0086
:10548C00B64DB74906930B702B80049BB54E591E35
:10549C008B4101785B42317000781A40B24FD3B225
:1054AC0040093B70FAF7E4FF080057014C00570124
:1054BC00490057015701470101232B80AB4B0822B0
:1054CC001968AB480BF0F6F82888AA4B083080B264
:1054DC0019680822288030180BF0ECF82B88083358
:1054EC002B80A54B9B6904939847A44B82B21A80DE
:1054FC002B88120AF054991C01339BB2F254A04A27
:10550C0089B23000298006ABC9B2126801F0CAFD1D
:10551C002B88069A591C100A89B2F2547054991CA3
:10552C0089B2100C7054191D03339BB2120EF25435
:10553C000026298030000BB0F0BD0122884B1A7078
:10554C00904B07261D78012DF4D1237807A9F34041
:10555C008D4E4B7033680D704B608C4B8C485A7869
:10556C0000780A721A784A721A002C3212788A72EF
:10557C005A1C009602F013FC402328402578800129
:10558C009D43844B05431A782570002A05D00022D0
:10559C001A702023EAB2134323707F4B714F1B68A0
:1055AC007E4E1A0A7B70BA701A0C1B0EFA703B7185
:1055BC00237830787B717A4B7A4D1B687A49BB71B2
:1055CC001B0AFB71794B40191A780BF06AF8774B70
:1055DC0032781B780499D218D2B23270744B0029ED
:1055EC0037D061490878002833D01B780826002B67
:1055FC0013D00F2A28D80F2021780B071B0FD31894
:10560C00034081430B4323707B71002394B299B206
:10561C008C4214D816000836F6B20021644B624D49
:10562C0019700B009A4237D95E48C45CE01E0728FB
:10563C0022D8FAF713FF2F21172C2F242117E85CFF
:10564C00F91808720133E2E70A70002304950593F8
:10565C00E3E70826002AE0D01B78002BDDD0424B74
:10566C001A70F2E76C5401334E4CDBB2481CE45C0C
:10567C00C0B20231C9B22C540133DBB2D2E7481CA0
:10568C0084460820484C60546146C9B2F4E70233A2
:10569C00DBB2F1E70133FBE7444B1970002902D070
:1056AC000122434B1A70049B002B1FD02E4B1978F0
:1056BC0000291BD06D463A4A2D7D1068294A364B7D
:1056CC009555741C059DE4B289B21B68A218002D77
:1056DC002BD16E46314D367D2E700292059A01907B
:1056EC000092344A049801F05FFC26001E4B1B4CC0
:1056FC00197806AB8919002621800293284B2D4A74
:10570C001B6800960193244B38001B6801F00AFCBF
:10571C00069A2188100A7B187A5458700431100CA0
:10572C00120E9870DA70218004E702920022019028
:10573C000092214AD6E7049E311E00D1FAE60026DB
:10574C00B34200D1F6E6D2B209480AF0AAFF3B7880
:10575C0001332B80EEE60226ECE6C046ECC60020B8
:10576C008ECB0020EAC8002016CC002030A50020EB
:10577C00EBC8002038A500201C2C02109CC6002071
:10578C0034A50020F1C600202CA50020B09B0020E1
:10579C00F3C600208ECA002050A500201BCC002090
:1057AC003CA5002091CB002080CC002000CD002017
:0C57BC0017CC00203BCA00202BCA0020A4
:1057C80070B588B002ABDD1D002304A9244C2B70F2
:1057D800087063784B7023788B70236B4B60636B16
:1057E8008B60204B1B888B811F4B1B78002B05D0AF
:1057F8001E4B1B780B701E4B1B784B701D4E1E4B9F
:105808002A001878330002F078FB01211B4B1C4A50
:105818005970517061781B4C997029782000D970A3
:10582800316899605160FA21FEF740FC2000FEF7CC
:1058380067FC154B1B78012B03D0144A13780133EE
:105848001370084B12481978124BDB6A019398477A
:1058580001230020104A11680B43136008B070BD83
:10586800B09B0020ECC60020DDE00020DEE0002038
:10587800510300200C9D0020F3C60020DCA400206A
:10588800F0A4002070A60020F1C6002090CB0020D4
:0C589800EAC800201C2C0210209C0020FC
:1058A4000023F0B587B002935B4B09201B78FF2BD4
:1058B40000D184E0594E002B00D13360584B594F2E
:1058C4001A78594B03AD1B78EA70013B59424B419E
:1058D4002B703B78AB70554B1868FEF7FBFB544CB0
:1058E400686023682900AB60524B1B786B70524B85
:1058F400187802F08EFC514B1A882368013A5343FE
:1059040032684F4C9B183360039363782B723B7857
:10591400AB72454B1B78013B5A4253416B72494B66
:105924001B686B60444F02AB3878474A00962900E5
:1059340002F0A3FC002806D1444B414A5B785BB2D9
:1059440053702B72EEE721000122A31C3E78DB7F0B
:105954002D315BB2A2560978300002F0FDFC3C4DBB
:10596400227A009541B26368300002F057FA282188
:10597400384E227A615638780096636802F04EFAFF
:10598400294B1B78012B1CD0A269EB68D318324A2F
:105994001360E369F2689B18304A1360264B1B7846
:1059A400052B05D1204B1B78012B1DD12C4A1370DC
:1059B4000299002922D1244B1878FFF703FF07B07E
:1059C400F0BD0121274B61561A78274B1878FFF751
:1059D400BBF803000820002BF1D02269EB68D31830
:1059E4001D4A13606369D5E7022BE1D11C4B1A7879
:1059F400002ADDD0002202921A70D9E710231B4A34
:105A04001B4C1068034320001360FEF751FB200079
:105A1400FEF778FB0020D2E73ACD002058A60020FC
