:020000041000EA
:1000000000B5324B212058609868022188439860DF
:10001000D860186158612E4B002199600221596106
:100020000121F02299502B49196001219960352056
:1000300000F044F80222904214D00621196600F024
:1000400034F8196E01211966002018661A6600F04E
:100050002CF8196E196E196E052000F02FF8012189
:100060000842F9D1002199601B49196000215960AB
:100070001A491B48016001219960EB211966A021F2
:10008000196600F012F800219960164914480160C1
:100090000121996001BC002800D000471248134993
:1000A000086003C880F30888084703B5996A0420EC
:1000B0000142FBD001200142F8D103BD02B5186610
:1000C0001866FFF7F2FF186E186E02BD00000240BE
:1000D000000000180000070000035F00212200005C
:1000E000F4000018222000A00001001008ED00E03C
:1000F00000000000000000000000000074B24E7A12
:1001000000000420E3010010C3010010E903001007
:10011000ED030010F1030010F5030010C101001001
:10012000C1010010C1010010C10100104503001001
:10013000C1010010C1010010C9030010D503001057
:10014000CD010010CD010010CD010010CD01001037
:10015000CD010010CD010010CD010010CD01001027
:10016000CD010010CD010010CD010010CD01001017
:10017000CD010010CD010010CD010010CD01001007
:10018000CD010010CD010010CD010010CD010010F7
:10019000CD010010CD010010CD010010CD010010E7
:1001A000CD010010CD010010CD010010CD010010D7
:1001B000CD010010CD010010CD010010CD010010C7
:1001C00000BE00BE00BE00BE00BE00BE00F03FF894
:1001D000103800BE00202049086006C881F3088856
:1001E00010471E48006800282DD10CA40ECC002911
:1001F00002D000F010F8F9E719491A4A002000E08F
:1002000001C19142FCD1184988471849884700BE6E
:10021000FDE701C901C29A42FBD37047345A02106C
:10022000C000002020120020A06B0210000004205B
:1002300000000420A06B0210001004200010042015
:100240000000000070470A481AF046FB0047EFF331
:100250000580C0B27047000008ED00E0000000D04B
:1002600030120020BCE00020CD0200109187011068
:1002700057560000F8B5C046F8BC08BC9E4670470B
:10028000F8B5C04610B5064C2378002B07D1054BB6
:10029000002B02D0044800E000BF0123237010BDF2
:1002A000409B00200000000084020010044B10B5A9
:1002B000002B03D00349044800E000BF10BDC04636
:1002C00000000000449B002084020010164B002B0D
:1002D00000D1144B9D46402292029A1A9246002168
:1002E0008B460F461348144A121A1CF071FC0F4B30
:1002F000002B00D098470E4B002B00D098470020D1
:10030000002104000D000D48002802D00C4818F010
:1003100042FA1BF0DBFF2000290014F037FC18F034
:1003200037FAC0460000080000000420000000006A
:10033000ED4A011030120020BCE000209787011028
:10034000000000007046C0082CD3EFF309808169DB
:1003500002390978002929D101B50FC8B8470CBC6A
:1003600003C29E461E4B06CB91421ED0083B1A602C
:10037000002909D0EFF3098020388863F0C0444693
:100380004D4656465F46F0C0906B1030F0C8A04610
:10039000A946B246BB4680F309882038F0C802203F
:1003A000C0430047EFF30880D1E770470D4A136858
:1003B0009942FAD801B5890053589C460FC8E047C6
:1003C0000CBC10609E46704701B513F06DFD03BC78
:1003D0008E46C7E701B513F025FD03BC8E46C1E785
:1003E0002806002074370210102304E0202302E0C6
:1003F000302300E040239C46F0B404AE7546E80884
:1004000001D3EFF309860E4F0FCE0FC70FBC0FC7F6
:100410004046494652465B460FC71DCE3100A60AEC
:1004200000D304316E0900D248311FC7EFF30980B1
:100430006946EFF3148663C76046014917F03CFD37
:1004400018C3002001480421014B18472008002050
:10045000E9A8011002B4714649084900095649004B
:100460008E4402BC7047C04602B471464908490038
:10047000095C49008E4402BC7047C04603B4714613
:10048000490840004900095A49008E4403BC70479E
:10049000002243088B4274D303098B425FD3030AC3
:1004A0008B4244D3030B8B4228D3030C8B420DD3D6
:1004B000FF22090212BA030C8B4202D31212090264
:1004C00065D0030B8B4219D300E0090AC30B8B42A2
:1004D00001D3CB03C01A5241830B8B4201D38B0350
:1004E000C01A5241430B8B4201D34B03C01A5241F5
:1004F000030B8B4201D30B03C01A5241C30A8B4238
:1005000001D3CB02C01A5241830A8B4201D38B0222
:10051000C01A5241430A8B4201D34B02C01A5241C6
:10052000030A8B4201D30B02C01A5241CDD2C30938
:100530008B4201D3CB01C01A524183098B4201D3B4
:100540008B01C01A524143098B4201D34B01C01A9F
:10055000524103098B4201D30B01C01A5241C30817
:100560008B4201D3CB00C01A524183088B4201D386
:100570008B00C01A524143088B4201D34B00C01A72
:100580005241411A00D20146524110467047FFE7DE
:1005900001B5002000F0F0F802BDC0460029F7D0F8
:1005A00076E7704703460B437FD4002243088B4213
:1005B00074D303098B425FD3030A8B4244D3030BEA
:1005C0008B4228D3030C8B420DD3FF22090212BAAF
:1005D000030C8B4202D31212090265D0030B8B422B
:1005E00019D300E0090AC30B8B4201D3CB03C01A15
:1005F0005241830B8B4201D38B03C01A5241430BF0
:100600008B4201D34B03C01A5241030B8B4201D3DF
:100610000B03C01A5241C30A8B4201D3CB02C01A4A
:100620005241830A8B4201D38B02C01A5241430AC2
:100630008B4201D34B02C01A5241030A8B4201D3B1
:100640000B02C01A5241CDD2C3098B4201D3CB0158
:10065000C01A524183098B4201D38B01C01A524107
:1006600043098B4201D34B01C01A524103098B420B
:1006700001D30B01C01A5241C3088B4201D3CB00F6
:10068000C01A524183088B4201D38B00C01A5241D9
:1006900043088B4201D34B00C01A5241411A00D289
:1006A00001465241104670475DE0CA0F00D04942F2
:1006B000031000D34042534000229C4603098B4262
:1006C0002DD3030A8B4212D3FC22890112BA030AEA
:1006D0008B420CD3890192118B4208D3890192116C
:1006E0008B4204D389013AD0921100E08909C309F1
:1006F0008B4201D3CB01C01A524183098B4201D3F3
:100700008B01C01A524143098B4201D34B01C01ADD
:10071000524103098B4201D30B01C01A5241C30855
:100720008B4201D3CB00C01A524183088B4201D3C4
:100730008B00C01A5241D9D243088B4201D34B00DF
:10074000C01A5241411A00D20146634652415B1021
:10075000104601D34042002B00D549427047634602
:100760005B1000D3404201B5002000F005F802BD47
:100770000029F8D016E770477047C046D0400B1CE0
:10078000D1409C46203AD34018435242634693409E
:10079000184370479140031C90409C46203A934078
:1007A000194352426346D340194370478446101C94
:1007B00062468C46191C634600E0C0461FB501F036
:1007C00081FD002801D40021C8421FBD10B501F0F1
:1007D000D9FC4042013010BD10B501F073FD002876
:1007E00001DB002010BD012010BDC04610B501F096
:1007F00069FD002801DD002010BD012010BDC046AC
:1008000010B501F0FBFC002801DC002010BD012028
:1008100010BDC04610B501F0F1FC002801DA00203F
:1008200010BD012010BDC0468446081C6146FFE78C
:100830001FB500F0CBFB002801D40021C8421FBD2A
:1008400010B500F04DFB4042013010BD10B500F076
:10085000BDFB002801DB002010BD012010BDC046FB
:1008600010B500F0B3FB002801DD002010BD012011
:1008700010BDC04610B500F05BFB002801DC002075
:1008800010BD012010BDC04610B500F051FB00287E
:1008900001DA002010BD012010BDC0461C2101233B
:1008A0001B04984201D3000C10391B0A984201D353
:1008B000000A08391B09984201D30009043902A231
:1008C000105C40187047C046040302020101010198
:1008D0000000000000000000002B15D1002A13D1F9
:1008E000002906DB01DC002806D00020C0434108B7
:1008F00002E080210906002007B4024801A1401847
:10090000029003BD75FEFFFF03B4684601B502986F
:1009100000F030F9019B9E4602B00CBC7047C04607
:10092000002B11D1002A0FD1002900D1002802D0BC
:100930000021C943081C07B4024802A140180290D4
:1009400003BDC04635FEFFFF03B4684601B50298FB
:1009500000F04EF8019B9E4602B00CBC7047C046AA
:10096000F0B5CE46474615042D0C2E0080B5070481
:10097000140C3F0C9946030C7E435D43674363436D
:100980007F19340CE4199C46A54203D980235B02ED
:100990009846C4444B4643435143250C36046544B2
:1009A000360C2404A4195B19591820000CBC90467D
:1009B0009946F0BD70B500220C4B04000D00FFF706
:1009C00029FF002804D12000290002F0B9FA70BDE7
:1009D000064B00222000290001F04EFF02F0B0FA81
:1009E00080231B069C466044F1E7C0460000E041BE
:1009F000F0B54F464646D646C0B5040082B00D005D
:100A0000914698468B422FD82CD04146484602F05A
:100A100039FB29000600200002F034FB331A9C4603
:100A2000203B9A4600D576E04B46524693401F0045
:100A30004B46624693401E00AF4228D825D053460D
:100A4000A41BBD41002B00DA7BE0002200230092B2
:100A50000193012352469340019301236246934040
:100A6000009318E08242D0D9002200230092019323
:100A70000A9B002B01D01C605D600098019902B0B8
:100A80001CBC90469946A246F0BDA342D7D900228D
:100A90000023009201936346002BE9D0FB079846A0
:100AA000414672080A437B0866460EE0AB4201D11C
:100AB000A2420CD8A41A9D41012024196D410021A5
:100AC000013E24184D41002E06D0AB42EED9013E26
:100AD00024196D41002EF8D1009801995346001950
:100AE0006941002B23DB2B005246D3402A00644689
:100AF000E2401C0053461500002B2DDB2600574614
:100B0000BE40330026006746BE403200801A99413D
:100B100000900191ACE7624620239B1A4A46DA40D6
:100B20006146130042468A4017001F4380E7624631
:100B300020239B1A2A0066469A402300F340134361
:100B4000D4E76246202300219B1A002200910192E3
:100B50000122DA40019280E72023624626009B1A98
:100B6000DE402F00B0466646B74046463B00334362
:100B7000C8E7C046F0B583B016001F000090019191
:100B800002F08CFA04000D0002000B003000390066
:100B9000FFF7E6FE009A019B121A8B41089920008C
:100BA0000A604B60290003B0F0BDC046F8B5474667
:100BB000CE4643025B0A4400C20F9C464800DD005B
:100BC0004B02240E5B0A000E80B598462600914623
:100BD000C90FDB00271A8A4229D0002F15DD002813
:100BE0004AD1002B00D095E0ED08FF2C00D188E021
:100BF0006B025B0AE6B25B02F605580A3043D20785
:100C000010430CBC90469946F8BD002F00D087E0F9
:100C1000601CC0B2012800DCB6E0EE1A720100D5FB
:100C2000C5E0002E3DD1002200260023E3E7002F7F
:100C300000DC96E000285DD0FF2C60D08022D2043A
:100C400013431B2F00DDECE02022D21B1800934041
:100C5000F8405A1E93410343ED186B017BD50134D4
:100C6000FF2C00D1B7E0012207262A406B089A4DDD
:100C70001D4015432E4029E0FF2CB5D08022D20420
:100C800013431B2F00DDB2E02022D21B190093403A
:100C9000F9405A1E93410B43ED1A6B015BD5AD0130
:100CA000AE093000FFF7FAFD05388640844265DC66
:100CB000041B330020200134E340041BA640751EB2
:100CC000AE41334307261D0000241E4001224B463F
:100CD0001A40002E04D00F232B40042B00D00435E3
:100CE0006B0100D480E70134E6B2FF2C2FD1FF2640
:100CF000002380E7002B52D1FF2C00D074E70A00BC
:100D0000ED08002DF3D08023DB032B435B025B0A4D
:100D1000FF2670E7013F002FBED0FF2CB1D163E763
:100D2000002C47D0FF2869D08024E4047A42254370
:100D30001B2A00DDC5E02C002026D440B21A9540C5
:100D40006A1E954125435D1B04008946A5E7AB015A
:100D50005B0A50E7002401224B461A406B07BAD1C8
:100D600042E7002F3BD10134E0B201284ADDFF2CDD
:100D7000BDD00726ED186D082E40A7E70723574D75
:100D8000241A35401E40A1E7002C1BD1002D6ED146
:100D9000002B00D19AE00A001D003C0024E7013F2F
:100DA000002F00D158E7FF2C00D04AE7A7E75E1BD1
:100DB000894676E7002D1CD10A00FF281FD00400C9
:100DC0001D0011E7002D5DD1002B17D180230022DB
:100DD000DB03FF260FE70A00FF2600230BE7002CAA
:100DE00021D1002D66D1FF28E9D11D0087E701231D
:100DF00052E77A1CA7D0FA43FF2899D10A001D00B8
:100E0000FF24F1E6002E21D1002D4FD0002B4CD035
:100E1000ED186B019ED5314B07362E4001241D4045
:100E200054E7012318E7FF28DFD08024E4047F4241
:100E300025431B2F4DDC2026F61B2C00B540FC4023
:100E40006A1E95412543ED18040006E7002DCCD01D
:100E5000002B00D153E780216046C903084203D02C
:100E60004046084200D11D000121114047E7002BF8
:100E700000D1B9E6EA1A500125D507265D1B2E40A0
:100E8000894623E7FF24002B00D1ADE6802260468F
:100E9000D203104204D04046104201D11D008946C1
:100EA00001224B46FF241A409EE62B00DD080A0073
:100EB00000249DE67A1CC6D0FF43FF28B9D11D004F
:100EC0001DE701253FE7151E00D044E7002200235F
:100ED00091E60125B7E7C046FFFFFF7DFFFFFFFB5F
:100EE00070B542004E024C0045026D0A120EC30F4F
:100EF000760A240EC90FFF2A0FD0FF2C11D0012033
:100F0000A24200D070BDB542FCD18B420DD0002A68
:100F1000F8D12800451EA841F4E70120002DF1D1A9
:100F2000EBE70120002EEDD1E9E70020EAE7C0461B
:100F300070B54A004E02450244006D0A240EC30FEC
:100F4000760A120EC90FFF2C15D0FF2A0ED0002CE6
:100F500015D1002A01D1002E1CD0002D14D08B42B7
:100F600027D00220013B1840013870BD002EEED082
:100F700002204042F9E7002DFAD1FF2A0ED0002AC4
:100F80000ED1002EEDD00BE001230139994308006A
:100F90000130EAE70020002DE7D0E2E7002EE7D19C
:100FA0008B42DED1944205DD0221581E08400138F3
:100FB000DBE70024A24204DCB542D2D80020B542CF
:100FC000D3D2581E012398430130CEE730B54200FA
:100FD00044024D02C30F4800640A120E6D0A000E4F
:100FE000C90FFF2A12D0FF280CD0002A12D10028E6
:100FF00019D1002D17D1002C2BD00220013B184015
:10100000013826E0002DF0D0022022E0002CFBD198
:10101000FF281FD000281FD1002D1DD10220013B29
:101020001840013815E0002C0ED08B42E5D100228B
:10103000904204DCAC42E0D80020AC4209D2581EF9
:1010400001239843013004E001230139994308004A
:10105000013030BD002DD7D18B42CED18242E7DDA9
:101060000221581E08400138F3E7C046F8B547464C
:10107000CE464400C20F80B547024802400A84466B
:10108000664648007F0A240EF60025009046FB00C5
:10109000000EC90FB146FF2800D185E0012671403E
:1010A000261A914257D0002E43DD002800D07FE061
:1010B0004946002900D1AAE0013E002E00D0F7E009
:1010C0005B1A5A0100D48BE09B019C092000FFF7BA
:1010D000E5FB05388440854200DDD3E0451B230055
:1010E00020200135EB40451BAC40621E9441234358
:1010F000072400251C40012241460A40002C04D050
:101100000F211940042900D00433590100D480E094
:101110000135ECB2FF2D00D0A3E0FF2400235B02D9
:10112000E405580AD207204310430CBC9046994668
:10113000F8BD002E74D1601CC0B2012800DCA7E00D
:101140004A469C1A620100D5B6E0002CBED10022AE
:1011500000240023E3E7002E00DC85E0002846D0D1
:10116000FF2C49D080224846D204104381460122F8
:101170001B2E09DC20204C46801B84404A46200060
:10118000F240441EA04102439B185A0128D5013564
:10119000FF2D00D1A8E00122072494491A405B08E2
:1011A0000B4013431C40A6E7002E00D078E775E7FC
:1011B000FF2C54D080224946D20411438946012293
:1011C0001B2E09DC20214846891B88404A46010025
:1011D000F240481E81410A439B1A5A0100D573E729
:1011E000012241460A40590700D089E711E04846EC
:1011F000002858D1FF2C0CD1DB08002B00D18CE744
:101200008020C00303435B025B0AFF2487E7FF2CB7
:1012100025D0DB08FF2DF0D05B025B0AECB27EE745
:10122000002C4DD0FF2818D08024E40472422343C0
:101230001B2A00DDC4E01C002025D440AA1A9340DC
:101240005A1E934123434A460500D31A884638E77D
:10125000721CF8D0F243FF28EAD10A004B46FF2562
:10126000D7E79B015B0A5AE7002E41D1651CE9B222
:10127000012945DDFF2D00D14FE707244B445B08D2
:101280001C4038E707225A4B2D1A2340144032E7FE
:10129000002C1DD1002B7AD14B46002B00D191E0C0
:1012A0000A000025B5E7013E002E19D14B446CE73A
:1012B000FF2C84D1FF25ACE74A468846D41A05E7BF
:1012C000002BC5D10A00FF28C8D005004B46A0E777
:1012D000002B49D14B46002B77D00A00FF2598E719
:1012E000FF2C00D043E787E70A00FF24002316E71E
:1012F000002C15D1002B57D1FF28E6D14B467BE7B8
:10130000002C20D1002B57D04946002953D04B4404
:101310005A0168D50724364A1C4001251340EAE6E5
:10132000FF28EBD08022D204764213431B2E53DCDD
:101330002025AD1B1A00AB40F2405C1EA3411343B5
:101340004B44050021E7002BD8D04946002900D1A5
:1013500052E78021C9030F4200D14DE760460842A1
:1013600000D049E74B4647E74846FF25002800D113
:101370004FE78022D203174204D06046104201D1C9
:101380004B46884601224146FF250A4041E7484630
:1013900000281FD01A1A500120D54A460724D31A14
:1013A0001C4088460025A6E6741CC9D0F643FF28D9
:1013B000BCD14B4620E799464B460025DB082BE77E
:1013C000012340E700220023A9E680230022DB035B
:1013D000FF24A4E600251CE70123B1E7002AF1D091
:1013E00013000025FCE60025FAE6C046FFFFFF7D5E
:1013F000FFFFFFFB41024200C30F490A120E00200B
:101400007E2A0DD99D2A0CD8802000040143952AFC
:101410000ADC9620821AD1404842002B00D10800F5
:101420007047034A9818FBE7963A9140F4E7C046A4
:10143000FFFFFF7F70B500283DD0C317C5185D4082
:10144000C40F2800FFF72AFA9E22121A962A07DCF8
:10145000D2B2082833DD083885406802400A23E00C
:10146000992A0BDD052329001B1AD94003001B33E1
:101470009D402B005D1EAB4119430D00052801DD89
:10148000431F9D402B000F490B406E0709D00F26CC
:101490003540042D05D004335D0102D59F220B4059
:1014A000121A9B01580AD2B24002D205400AE40740
:1014B0001043204370BD002400220020F4E768029E
:1014C000400AF1E7FFFFFFFB70B5041E34D0FFF7C1
:1014D000E5F99E22121A962A07DCD2B208282EDDE0
:1014E000083884406002400A21E0992A09DD03009F
:1014F00021001B3399404B1E994105231B1ADC40E8
:101500000C43052801DD431F9C4023000D490B407F
:10151000650709D00F252C40042C05D004335C014D
:1015200002D59F220B40121A9B01580AD2B24002E8
:10153000D205400A104370BD00220020F7E7600288
:10154000400AF4E7FFFFFFFBF0B54F464646D6469C
:101550000C000903C0B5490A470F5E0039431F0359
:10156000DB0F9C4665007B0A570F1F436D0DE40F90
:10157000760DA146C000B846D200AB1B64457BD0B7
:10158000002B5FDD002E00D0A4E03E00164300D10A
:1015900012E15E1E002E00D09EE1871A4346B8423B
:1015A00080410125C91A4042091A0B0200D431E1D9
:1015B00049024E0A002E00D16EE13000FFF76EF9AD
:1015C0000300083B1F2B00DD61E120223900D21A05
:1015D0009E40D1409F400E439D4200DD51E15D1B86
:1015E0006B1C1F2B00DD7CE12021C91A3D0030005F
:1015F0008F408840DD40791E8F413100072228430B
:10160000D940002507433A40002A09D00F233B4028
:10161000042B05D03B1DBB42BF417F42C9191F00AF
:101620000B0200D426E26A1CC64B55056D0D9A428A
:1016300000D106E1C44AFF080A40530752023B4367
:10164000120B8EE0002B00D0B8E06B1C5B055B0D2D
:10165000012B00DC30E1871A4346B842B641CB1A71
:1016600076429E1B330200D54CE13B003343A1D1AF
:1016700000220024002570E0002B00DCE5E0002EB5
:1016800000D183E0AF4EB54260D0802636043743A8
:10169000B846382B00DC3EE1434613431F007A1E58
:1016A00097413F1887428041404209180B0200D4FD
:1016B000B0E0A44B01359D4200D1C3E0A24A7B08B3
:1016C0000A4001210F401F435108D30707221F433F
:1016D0003A4099E79B4EB54238D0802636043743CE
:1016E000B846382B00DDDCE01F2B00DC30E11E00AB
:1016F0004746203EF740BC46202B04D04026F31A34
:1017000046469E403243170063467A1E97411F4368
:10171000CCE0002B00D104E24346134300D159E151
:101720004B07C00818438023C9081B03194208D07F
:101730004546ED081D4204D14346D00859070843E9
:101740002900420FC9007F4D1143C0004B07CA0852
:101750007C49C00803438D4268D012036D05120B0B
:101760006D0D002112031800130B0A0D12051A4308
:10177000764B2D0513402B435B00E4075B082343A6
:1017800019001CBC90469946A246F0BD3E00164387
:1017900012D05E1E002E00D000E1871887428041E3
:1017A00041444042091801250B0233D5022585E743
:1017B00064463300414610001D00C7E7002D00D0ED
:1017C000DAE00C000443F3D05C1C00D19FE15D4CD7
:1017D000A64200D12FE1DB43382B00DD66E11F2B51
:1017E00000DD83E120240500E41A0F00DD40D9402C
:1017F000A0404346A7405B1A441EA04198462F4391
:101800003843171ABA42924143465242991A6446E3
:101810003500CAE607223A40002A00D0F6E64B0718
:10182000CA084849FF083B438D4296D1190011432D
:1018300000D19EE1802109030A431203120B414D9E
:101840008FE71500002200238BE7002B00D0C7E0B4
:101850006B1C5F057F0D012F00DCF1E0394DAB42C1
:1018600000D1B9E085180A008542894142444942C5
:1018700051180722CF076D082F4349083A401D0031
:10188000C2E607223049ED1A31403A40BCE63E003C
:101890002838864000279FE63800FEF7FFFF2030FB
:1018A0008EE6434613431F007A1E9741C71BB8427A
:1018B00080414042091A78E60E003B00064313437C
:1018C000002D61D1002E00D0F4E0002B00D11BE1EF
:1018D00064463900100039E71A4FBB427AD0330012
:1018E000FFE630001F3DE840202B03D04021CB1AFB
:1018F0009E4037437B1E9F41072207433A40002109
:10190000002589E7171A4346BA42B641591A76426A
:101910008E1B64464EE61F2B00DDADE020264746B9
:10192000F61AB740B9461700B246DF404E463E436E
:1019300037005646B240561EB24117434246DA407F
:101940008918AEE6FF070000FFFF7FFFFFFF0F8053
:1019500020264746F61AB740B9461700B246DF4080
:101960004E463E4337005646B240561EB2411743DC
:101970004246DA40891A99E77F4CA6425BD0802420
:1019800024045B42214327E7002E0CD1002B00D119
:10199000CBE0644639001000774DD7E6764FBB4266
:1019A00018D0330075E6002B14D04B07C00818433D
:1019B0008023C9081B03194207D0FC081C4204D12C
:1019C0007907D0080843E14621004C46420FC90080
:1019D0001143C000684DB9E61D0000220023C0E697
:1019E000002D5BD10D00054300D1E2E65D1C00D166
:1019F000B0E0614DAE421FD0DB43382B71DC1F2BB2
:101A000000DD96E020250F00ED1AAF40B946070033
:101A1000AA46DF404D463D432F005546A840D940D9
:101A2000451EA84188440743BF189742924151423E
:101A3000414435003AE6644635004146100085E6EB
:101A40000B000343002D00D063E6002BF5D0434686
:101A5000134300D17AE68718874280410722414428
:101A6000404209183A400B0200D4D5E6434B0135F9
:101A70001940C9E5380069E61E004746203EF74098
:101A8000BC46202B04D04026F31A46469E403243E3
:101A9000170063467A1E97411F4302E6364DAE4259
:101AA000CAD080252D045B422943A6E70843411E86
:101AB0008841A6E6002B00D148E6871A4346B84283
:101AC000B641CB1A76429E1B33024BD5171A4346BA
:101AD000BA429241591A5242891A072264463A4040
:101AE00092E501430F00791E8F419DE71C000F0016
:101AF000203CE740202B03D04024E31A99400843C0
:101B0000411E884138437CE60022002425E6171A4E
:101B10004346BA429241591A5242891A64463500E4
:101B200043E541461000144D10E6802200241203C4
:101B300080E61D000F00203DEF40BC46202B03D067
:101B40004025EB1A9940084307006346781E8741F9
:101B50001F4369E7871897429B4141445B42C9187C
:101B60003500A3E53B003343CED0072231003A4095
:101B700052E600231A00F4E5FF070000FFFF7FFF95
:101B8000F0B55746DE464E464546E0B5834607006B
:101B90000E03480085B092461C00360B400DCD0F59
:101BA000002800D19DE0954B984239D08023F60063
:101BB0001B041E43924A7B0F33439946944603000D
:101BC0006344009300230026FF00029323031B0BB2
:101BD00098466300E40F52465B0D019400D1B3E0D8
:101BE00086498B4200D19EE04246D10080221204F9
:101BF0000A435146490F11438B46814952468C4650
:101C000000996344CB1A0021D20000932B0063405B
:101C10009A460F2E00D905E17A4BB6009B599F4694
:101C20005B463343994600D0B8E0022308260027DC
:101C300000900293CAE7CB463A0002990195019BB6
:101C40009A46022927D0032900D180E2012944D0F5
:101C50006D49009B8C4663441C00002C38DD530703
:101C600000D013E2D2085B46DB0109D55946674B29
:101C700019408B468021C9008C46009B63441C00A0
:101C8000634B9C4207DC5B4664055F075B021743BE
:101C90001B0B620D02E000230027584A00211B03A2
:101CA0001C0B0B0D1B05234314055A4A3800134027
:101CB0001C4353466400DB0764081C43210005B045
:101CC0003CBC90469946A246AB46F0BD012252422A
:101CD00001231B1B382B00DCADE100220023002771
:101CE000DCE75B46334399465ED0002E00D18AE1A3
:101CF0003000FEF7D3FD03000B3B1C2B00DD7BE126
:101D00001D22D31A5A460100DA4008398E401300CA
:101D10005F46334399468F403F4B00261B1A009382
:101D20000023029352E7414653460B433B499B46EF
:101D30008C46009B634400935B46002B3BD10223FF
:101D400000221E43022161E7434613439B4637D0DE
:101D50004346002B00D162E14046FEF79FFD0300A1
:101D60000B3B1C2B00DD53E102004146083A914039
:101D700088461D21CB1A5146D9400B0041460B43E2
:101D80009B46534693401A00009B25499C4660445D
:101D900003008C4663440093002137E70323B146D8
:101DA00000900C26029311E70023009301330426D0
:101DB000002702930AE70323C3461E43032125E7B6
:101DC00001331E430022012120E700239A4680238D
:101DD00000271B03094A61E7802349461B03194278
:101DE00000D1E2E05946194200D0DEE00B431B036C
:101DF00017001B0BA246014A50E7C046FF07000030
:101E000001FCFFFF00220210FF030000FFFFFFFEA6
:101E1000FE070000FFFF0F800DFCFFFF01F8FFFF32
:101E2000F3030000D94500D9CBE000D1C6E03C0067
:101E300048460027009B013B00935B46160E1B02A1
:101E40001E431302984633041B0C9946310C019132
:101E5000FEF7A4FB4A4642430B04210C050019433C
:101E60008A4207D98919013D8E4203D88A4201D995
:101E7000851E8919881A0199FEF790FB09048C4682
:101E80004A46210464464243090C030021438A4226
:101E900004D98919013B8E4200D8F1E02D041D437D
:101EA000AB464346891A4246280C12041D0C5B4679
:101EB000140C22001B041B0C5A4303946B43444331
:101EC000029568431B19150CEB189C4203D980241A
:101ED0006402A44660441C0C15041B042D0C20183D
:101EE0005D19814277D373D00C1AA24A7D1BAF4291
:101EF000BF419446009B7F426344E01B1C00864226
:101F000000D1DBE00199FEF749FB4A4642430B044E
:101F1000290C070019438A4207D98919013F8E42CB
:101F200003D88A4201D9871E8919881A0199FEF7B8
:101F300035FB09044A46894629044D464243090CAB
:101F4000030029438A4207D98919013B8E4203D8ED
:101F50008A4201D9831E89193F04891A3A00039FD6
:101F60001A43380013041B0C584381460298150C81
:101F70006F43434345434846000C8446DB196344A2
:101F80009F4203D9802040028446654448461F0C86
:101F900000041B04000C7D191818A94200D284E02B
:101FA00000D17FE001231A4357E680234A461B03F2
:101FB00013431B031B0BAA466F4A6FE6BA4200D9B4
:101FC00035E74B46DC0758087B081C43FF0734E71E
:101FD0000024AF4289D247444745A4415B4664424E
:101FE000A4196418013BA6421ED2A0426DD800D1AC
:101FF000B6E0241A9B4678E703005A46283B9A40ED
:102000000027914688E65846FEF748FC203072E6E5
:1020100003005246283B9A4093460022B4E65046BD
:10202000FEF73CFC20309AE6A642E2D1B845DCD966
:10203000341A9B4659E71F2B65DC504C0099A44687
:102040005C46614408008C4011008240D940501E1B
:1020500082410C4314435A46DA401300620709D008
:102060000F222240042A05D02200141D94428941E7
:1020700049425B181A0262D50122002300270DE6AF
:102080008A4200D80AE7831E891907E70F23134005
:10209000042B00D1E6E5171D9742924153429B4421
:1020A000FA08E0E5002800D1D7E57118531EB142C7
:1020B00027D3A94215D358D01A0073E7002B00DCB0
:1020C00004E6012300229B44CDE502234744474513
:1020D00089415B429C46494289190C19E344241A00
:1020E00003E743465F0047459B41B8465B429E1964
:1020F000023A8919A94200D054E7404500D051E77F
:10210000ABE51A00F6E71F215F4649420C1BE7408A
:10211000202B07D01A49009B8C46634418005B466D
:1021200083401A43501E82413A4307270023174039
:1021300009D00F21002311401400042995D1220059
:102140005F075B021B0BD20817430022A6E5802322
:1021500059461B030B431B0317001B0B064A9DE547
:10216000BD42B2D89B460024BFE68045B9D31A00D1
:10217000C3E7C046FF030000FF0700001E04000085
:102180003E040000F0B54F464646D6468446C0B5EC
:102190008046194E18030F034D00000B5C00824669
:1021A0003F0B6D0DC90F9146640DDB0F0120B54249
:1021B0000AD0B44203D0A54201D157450CD01CBC73
:1021C00090469946A246F0BD66463E43F7D1AC42E2
:1021D000F5D154461443F2D10120C845EFD19942BC
:1021E00007D0002DEBD163461F433800471EB8418E
:1021F000E5E70020E3E7C046FF070000F0B54F46E3
:102200004646D6464D00C0B50E03C90F8A462C4936
:102210001F035C008046360B6D0D91463F0B640D2D
:10222000DB0F8D421ED08C4216D0002D1ED13043C4
:102230008446002C01D13A4323D06246002A1AD0AA
:102240009A4529D0514602200139084001381CBC6A
:1022500090469946A246F0BD39001143E5D00220D0
:102260004042F4E73043FAD1AC420FD0002C0FD1FA
:102270003A43E7D00CE00122013B934318000130C0
:10228000E5E763460020002BE1D0DBE73A43E6D1E7
:102290009A45D7D1A542D5DCA54205DBBE42D1D8AF
:1022A00008D00020BE42D2D25046012301389843C4
:1022B0000130CCE7C845C5D80020C845F4D3C6E7EF
:1022C000FF070000F0B54F464646D6464D00C0B564
:1022D0000E03C90F8A462E491F035C008046360B49
:1022E0006D0D91463F0B640DDB0F8D4218D08C4273
:1022F00011D0002D18D130438446002C1ED13A4312
:102300001CD163460020002B30D0514602200139F9
:10231000084001382AE039001143EAD0022025E0C4
:102320003043FBD1AC4226D0002C26D13A4324D1F5
:102330005146022001390840013817E06246002A60
:102340000FD09A45E1D1A54205DBBE42DDD819D0B8
:102350000020BE420AD25046012301389843013082
:1023600004E00122013B9343180001301CBC90465D
:102370009946A246F0BD3A43D0D19A45C5D1A5426F
:10238000C3DCE0E7C845C0D80020C845E3D3EDE78B
:10239000FF070000F0B55746DE464E464546E0B51D
:1023A000834606000F03480087B092461D003F0B8E
:1023B000400DCC0F002800D16FE0DE4B984238D0A2
:1023C0008023FF001B041F43730F3B430193DA4B31
:1023D0000027994600239B46F60081442B036900A1
:1023E0001B0B52469846490DED0F002900D185E0A0
:1023F000D04B994200D173E04346DA0080231B049E
:1024000013435246CC48520F844613435246002091
:102410006144D20089442100694000918C46012129
:1024200049448A460F2F00D990E0C449BF00CF59D4
:10243000BF465B463B43019300D06AE10223082775
:10244000002681469B46C9E732005846019B6146FB
:102450000091022800D175E0032800D1FEE1012897
:1024600000D02CE100230027002600253F032A0D81
:102470003F0BB34812053A4302401B051343009A31
:102480005B00D1075B080B433000190007B03CBC70
:1024900090469946A246AB46F0BD5B463B4301934E
:1024A00000D12FE1002F00D1A5E13800FEF7F6F9A9
:1024B00003000B3B1C2B00DD96E11D22D31A5A466C
:1024C0000100DA405E4608398F4013008E403B43DE
:1024D00001939C4B00271B1A994600239B467DE7DE
:1024E000414653460B4393498C46E144002B00D0B0
:1024F0001AE102220220174300228CE7134300D185
:102500000DE14346002B00D181E14046FEF7C6F9BC
:1025100002000B3A1C2A00DD72E101004346083933
:102520008B4098461D239A1A5346D3401A004346BF
:10253000134352468A404946081A824989468144D3
:10254000002068E77B4B002700268EE7140C12045E
:10255000120C1100370C3604350C794328008C46D8
:102560002E0060436044834656432100300C804671
:102570005846794340440291844506D988468021D3
:1025800049028C46E044414602913604010C360C67
:1025900000048B4681191E0C1B041B0C03911900AF
:1025A00079438C46280075436544A8465843050C7A
:1025B00045447743A94203D9802149028C466744A8
:1025C000290C8C4639000004000C2D042D186144A0
:1025D000AB4405915946049101990F043F0C080C36
:1025E000390051434243904602008C46090C8B4609
:1025F00062437C4344445C44A04503D980214902A2
:1026000088464244210C884661460904090C8C46E0
:1026100039005943434370437E430F0CF61824049A
:10262000BE19644442448C46B34203D980235B0202
:1026300098464044029B61469846049B37044344B5
:102640009B46AB45AD416B420D0405992D0C8C4664
:102650007F196744FD18A8465D462D19A542A4417F
:1026600093466442A446C344DC448F42BF4198452C
:102670009B4193459241A445A4415B427F421F4345
:10268000360C52426442BF192243BF1862463818C2
:102690004302D20D039913436A020A43501E82413A
:1026A0006146ED0D2A434E023243D90100D4B3E016
:1026B0000126500832400243DE0732435B08224CB9
:1026C0005444002C62DD510709D00F20104004282B
:1026D00005D0101D9042924152429B180200D90130
:1026E00004D580241948E400034054441848844227
:1026F00000DD27E75E075B02D2081F0B6305164368
:102700005B0DB2E6002399460133042700269B4661
:1027100064E60323019781460C279B465EE601226F
:1027200001201743002276E6032303201F4343467C
:1027300071E6C046FF07000001FCFFFF40220210C7
:10274000FFFF0F800DFCFFFFFF030000FFFFFFFEF8
:10275000FE0700000023802700933F030026434B21
:1027600083E6019B3200A446584670E6AC466EE60E
:10277000802701993F0339422DD03B422BD11F4383
:102780003F033F0B00951600384B6EE601252D1BCD
:10279000382D00DD66E61F2D40DC35481C00504416
:1027A000160082408440EE40501E82413443144360
:1027B000EB40620709D00F222240042A05D02200F4
:1027C000141D9442804140421B181A023ED5012339
:1027D0000027002649E68027019B3F031F433F0354
:1027E0003F0B0094214B40E603005A46283B9A4099
:1027F000002601926DE65846FEF750F8203057E665
:1028000003005246283B9A401300002293E65046AC
:10281000FEF744F820307BE6CA4650E71F201E0032
:102820004042041BE640202D03D0124C5444A340E8
:102830001A43501E8241324307260027164009D012
:102840000F200023104014000428B9D122005E0795
:102850005B021F0BD2081643002306E680273F03C6
:102860001F433F033F0B1600004BFEE5FF07000030
:102870001E0400003E040000F8B557464E4645468B
:10288000DE460C000903E0B5490A460F5F003143FC
:102890001E03DB0F760A9B46530F3343C84E650079
:1028A000C000E40FD2006D0DA24681467F0D9C460C
:1028B0009046B74200D1B9E05B46012673409B4683
:1028C000EE1BA34500D183E0002E63DD002F00D076
:1028D000B1E06346134300D123E1731E002B00D007
:1028E000BAE1861A6346B04280410125C91A4042C6
:1028F000091A0B0200D447E149024B0A98464346A5
:10290000002B00D189E14046FDF7C8FF0300083BDA
:102910001F2B00DD7CE120223000D21A4146D0403E
:10292000994002009E400A439D4200DD6AE15D1B22
:102930006B1C1F2B00DD94E1202110003500C91A0B
:102940008E40DA408840DD40711E8E411100072222
:102950002843002506433240002A09D00F23334084
:10296000042B05D0331DB342B641764289191E00AF
:102970000B0200D43DE26A1C914B55056D0D9A4245
:1029800000D119E18F4AF6080A405707520237432F
:10299000120B9BE0002E00D0C5E06E1C7605760D74
:1029A000012E00DC48E16746861ACB1BB042BF41CE
:1029B0007F42B8461F004346FF1A3B00B8461B0241
:1029C00000D55FE137439AD100220024002579E049
:1029D000002E00DCFAE0002F00D18DE0784B9D4204
:1029E00067D0802367461B041F43BC46382E00DC9B
:1029F00052E1634613435A1E93411E18864280419A
:102A0000404209180B0200D4BEE06D4B01359D42D7
:102A100000D1D2E06B4A73080A4001210E401E43E8
:102A20005108D30707221E43324095E71E00164384
:102A300000D045E740E7624B9D423AD0802367468D
:102A40001B041F43BC46382E00DDEBE01F2E00DCCC
:102A50003AE133006746203BDF403B00202E05D0A3
:102A60004027BF1B6646BE40324390464646721E14
:102A700096413343DAE0002B00D114E2634613435E
:102A800000D168E180234E07C008C9081B03064334
:102A9000194208D06046C008184204D163460100BC
:102AA000D2085E071643F3009946C900720F444DE1
:102AB00011434B46DE08424B4F073743CA089D423D
:102AC00000D16EE012036D05120B6D0D0021120393
:102AD000130B0A0D12051A433B4B2D0513402B43D4
:102AE0005B00E4075B082343380019003CBC9046B8
:102AF0009946A246AB46F8BD6346134311D0731EF8
:102B0000002B00D007E18618864280416144404294
:102B1000091801250B0237D502257BE73E006146E7
:102B200091463500C5E75C46002D00D0E1E00B0082
:102B30000343F3D0731C00D1ACE1214B9F4200D181
:102B40003AE1F343382B00DD6FE11F2B00DD8CE110
:102B500020250E00ED1AAE40B0460600AA46DE4023
:102B6000454635432E005546D940A8406346451E8C
:102B7000A8415B1A9C463043161AB2429241634602
:102B80005242991A3D00B4E607223240002A00D092
:102B9000E4E60B4BF6084F073743CA089D4200D0C6
:102BA00090E73B00134300D1A6E180231B031A43A7
:102BB0001203120B024D89E715000022002785E75A
:102BC000FF070000FFFF7FFFFFFF0F80002E00D0F8
:102BD000C7E06B1C5E05760D012E00DCF0E0C84DF1
:102BE000AB4200D1B9E085180A00854289416244B0
:102BF000494251180722CE076D082E43490832403A
:102C00001D00A9E6BF49ED1A114007223240A3E694
:102C1000320028388240002686E63000FDF73EFE6E
:102C2000203073E6634613435A1E9341C61AB042DE
:102C300080414042091A5CE60E006746064317438E
:102C4000002D5ED1002E00D0F3E0002F00D11EE158
:102C50005C46614691462CE7A94FBE427BD01E00E0
:102C6000F1E610001F3DE840202B03D04021CB1A95
:102C70009A401643731E9E410722064332400021AC
:102C8000002583E7161A6346B2428041591A404232
:102C90000B1A98465C4632E61F2E00DDABE020277B
:102CA000BB1B9A4663465746BB40994613004F46A6
:102CB000F3401F433B005746BA40571EBA411343E7
:102CC0006246F240891898E62027BB1B9A46634665
:102CD0005746BB40994613004F46F3401F433B0005
:102CE0005746BA40571EBA4113436246F240891A0A
:102CF0009CE7834B9F425FD080252D04734229437C
:102D000020E7002E0CD1002F00D1D0E05C466146B8
:102D100091467B4DCDE67A4FBE421CD01E0065E643
:102D2000002F18D0C0084E0706438020C9080003B2
:102D3000014208D06346DC08044204D12100DA468F
:102D4000D2085E071643F300994601245346C90092
:102D5000720F11431C406A4DABE61D000022002794
:102D6000B4E6002D59D10B00034300D1D6E6731C05
:102D700000D1B2E0624B9F421ED0F343382B6FDC90
:102D80001F2B00DD97E020250E00ED1AAE40B04667
:102D90000600AA46DE40454635432E005546A8406B
:102DA000D940451EA8418C440643B618964292412C
:102DB000514261443D0025E63D006146914678E67A
:102DC0000B000343002D00D055E6002BF5D06346E1
:102DD000134300D16DE6861886428041614440422B
:102DE000091800220B0200D4D0E6464B01351940E9
:102DF000B2E5B1465DE633006746203BDF403B006D
:102E0000202E05D04027BF1B6646BE403243904669
:102E10004646721E96413343EFE5394B9F42CBD075
:102E200080252D0473422943A8E70843411E8841A9
:102E3000A2E6002F00D13CE66346861ACF1AB042C4
:102E40009B415B42FB1A98461B024ED5161A6346FD
:102E5000B2429241591A5242891A5C4600227BE5DD
:102E600001430E00711E8E419FE71D000E00203DA4
:102E7000EE40B046202B04D04025EB1A9940084381
:102E8000814648464346411E8841184374E6002265
:102E9000002417E6161A6346B2429241591A52426A
:102EA000891A3D0025E561469146154D01E68022CF
:102EB0000024120379E61D000E00203DEE40B046CE
:102EC000202B04D04025EB1A9940084381464E46FA
:102ED0004346711E8E411E4367E7861896429B410A
:102EE00061445B42C9183D008CE547463743CED06C
:102EF00007224146324049E600273A00E6E5C0464F
:102F0000FF070000FFFF7FFF70B50C4E0D031C0391
:102F100049005B002D0B490D240B5B0DB14208D01D
:102F2000064900208B4203D114432000441EA041D7
:102F300070BD05430120002DFAD1F1E7FF07000025
:102F400030B5144D0A034B00120B5B0DC90F002462
:102F5000AB4211DD104CA34210DC802464032243F9
:102F60000E4CE41A1F2C0CDD0D48C31ADA40130076
:102F70005C42002900D11C00200030BD094BCC1858
:102F8000FAE7094DE040AC4663449A40130003431E
:102F9000EEE7C046FE0300001D04000033040000FD
:102FA00013040000FFFFFF7FEDFBFFFF70B500285B
:102FB0002DD0C317C5185D40C40F2800FDF76EFC67
:102FC000154B1B1A5B055B0D0A2815DD0B38854078
:102FD00000222D032D0B002110002D030A0D2D0BB7
:102FE00012052A430D4D1B052A4013435B00E407DD
:102FF0005B082343190070BD02002900153291407F
:103000000A000B21081AC5402D032D0BE3E700240D
:10301000002300250022DEE71E040000FFFF0F80D2
:1030200010B5041E25D0FDF739FC144B1B1A5B05A7
:103030005B0D0A2812DD0B38844000222403240B88
:103040000021100024030A0D240B120522430C4C0E
:103050001B05224013435B00590810BD02002100EC
:10306000153291400A000B21081AC4402403240B96
:10307000E6E7002300240022E2E7C0461E04000029
:10308000FFFF0F8010B5002903D1FDF707FC2030AA
:1030900002E0081CFDF702FC10BDC046F0B54E462C
:1030A0005746DE464546E0B50F00002183B00600D6
:1030B0008946002F06DA3900002746428F41012158
:1030C00049428946002B07DA4946C9431000894620
:1030D0001900002342428B4134003D00924698463D
:1030E000BB4269D866D041465046FFF7CBFF8346C6
:1030F00039003000FFF7C6FF5B461B1A9C46203B99
:103100009B4600D575E05146584681400B0051461C
:10311000604681400A00BB4261D85ED034003D0069
:103120005946A41A9D41002900DA7AE000210020C6
:1031300001260090019159468E4001966146012674
:103140008E4061460096002950D0D90756085F0886
:103150000E4363460EE0AF4201D1A6420CD8A41B39
:10316000BD41012124196D410022013B64185541E4
:10317000002B06D0AF42EED9013B24196D41002B44
:10318000F8D1009801995B4600196941002B3DDB9D
:103190002E00DE4063462C00DC405B46002B4BDB00
:1031A00034005D46AC4023006446A6403200801ADD
:1031B000994103E0B24296D9002000214B46002BF2
:1031C00004D003000C0000215842A14103B03CBCD4
:1031D00090469946A246AB46F0BDB1429ED9002129
:1031E00000200090019161460029AED1009801991C
:1031F000E4E72023624651469B1AD940404600919D
:1032000061468840030000990B4380E76246202313
:103210009B1A2A009A40260013006246D6401E439D
:10322000B8E7614620260127761A00200021F740E2
:1032300000900191019781E767462023624635009F
:10324000BC409B1ADD4023002B43ADE7024670B51E
:103250000A4392072AD11E4DEE0104C808C9541B27
:103260009443344017D0D0B2D9B2401A210601435A
:1032700010D190B299B2401A210401430AD1100230
:103280001902000A090A401A2102014302D1100E54
:10329000190E401A70BD9A42DFD010BA19BA88428E
:1032A00001D9012070BD0020C04370BD02780B78A9
:1032B00001300131002A09D09A4207D102780B78F7
:1032C00001300131002A01D09A42EFD0D01A70BDEE
:0432D00001010101F6
:1032D4000020044B8200D258002A02D0013010286A
:0832E400F8D17047340200200C
:1032EC00F8B505000E000024094FA300D959002998
:1032FC000CD02800FFF7A4FF002802D13460013065
:10330C00F8BD0134102CF0D10020F9E70800F7E7E4
:04331C003402002057
:10332000084B034004D51020013B404203430133C6
:1033300000220120934203DD400080B20132F9E710
:083340007047C0460F00008039
:1033480000231A0010B5C15C5C00A14001330A4398
:08335800102BF8D1100010BD8C
:1033600082B0F8B50026079306921AAB1D880400B8
:10337000B54221D02B120370457016A8FFF7E4FF69
:10338000030EA370030CE370030A2371062360711C
:1033900006AF012215420AD0B200D2591116E154EB
:1033A0001014E118487010128870CA700433013686
:1033B0006D08102EEDD1DEB23000F8BC08BC02B0B2
:0233C0001847AC
:1033C400F7B50C002E210700019219F013FF051E1A
:1033D4002ED00600280019F077FF731B984203D9FA
:1033E400737833700136F5E7019B1B19403318706D
:1033F4002000FFF793FF0500104E1149030022003F
:1034040030000FF057F9019B380050331A88A4009C
:1034140015431D8017F0FCFF019BE050380017F0A6
:10342400F7FF3A000300074930000FF043F9F7BDF6
:10343400019B1B1940331870DAE7C0460CA2002028
:08344400802202109222021006
:10344C00F0B50A2189B007000392002519F0CEFED1
:10345C000400A84224D03B4E3B4930000FF01CF92D
:10346C00049500232370049B3A0001333749300044
:10347C0004930FF01BF93A21380019F0B7FE2821FC
:10348C000590380019F0B2FE29210500380019F01A
:10349C00ADFE059B0700002B01D0002D03D10025AC
:1034AC00280009B0F0BD2A21280019F09FFE002841
:1034BC0000D0070000232B703B70059F07A9013734
:1034CC003800FFF70DFF002813D0214930000FF012
:1034DC00E3F801353A001F4930000FF0E7F82A00F5
:1034EC001D4930000FF0E2F8039A07992800FFF706
:1034FC0063FF671C0A21380019F078FE041EB0D156
:10350C00049A164930000FF0D1F8013422000399C7
:10351C003F328A5CA3000092043BCB582200104936
:10352C0030000FF0C3F8102CEFD1039B0125503362
:10353C001C88002CB4D10B4930000FF0ADF82500DD
:10354C00AEE7C0460CA20020A8220210B72202103F
:10355C00D722021009230210142302101F23021079
:08356C003C2302105C23021055
:1035740010B50FF051F9014B186010BDBCC100200B
:10358400F7B50FF049F9E1211E4C0600490220006D
:1035940000270DF041FC20000DF094FC051E12D113
:1035A4000FF03AF901950090009A019B921BBB41E0
:1035B4001100002B07DC02D1134B994203D864207D
:1035C4000FF03AF9E7E700F025FA012117200FF090
:1035D4005DF9002117200FF097F900F0F3F80B497B
:1035E40020000FF05DF80A4A0A4920000FF062F843
:1035F400FFF76EFE05220300074920000FF05AF87A
:10360400F7BDC0460CA2002087130000302602102C
:0C3614001A2602105E2602107326021017
:1036200030B591B000F086FA1D4D28000DF078FD00
:1036300000281EDD28000DF0FBFD1A4902000400E1
:1036400028000FF039F81848732C02D0632C04D1ED
:10365000164800F0ADF911B030BD742CFBD13A2200
:10366000134901A819F022FA3A2101A800F008F93B
:10367000F1E70FF0D3F80F4C2368C01A0E4B1B680C
:103680009842E8D904F0D0F8012806D1064800F0A5
:103690008FF90FF0C3F82060DDE704F06BF8F8E76E
:1036A0000CA20020252602101A2602102326021042
:0C36B000C81F0210BCC1002074020020E2
:1036BC001FB50168037942790291017A01910621C3
:1036CC00415E0348009103490EF0F0FF05B000BDC8
:0836DC000CA200208B27021054
:1036E40010B5044A002800D1034A044904480EF0E6
:1036F400E1FF10BDCC270210D4270210DB270210F3
:043704000CA20020F3
:1037080010B5024902480EF0C9FF10BDEC2702109F
:043718000CA20020DF
:10371C0010B5084C084920000EF0BEFF07492000E8
:10372C000EF0BAFF064920000EF0B6FF04F01CF8AC
:10373C0010BDC0460CA200203A2802104C280210E2
:04374C0069280210D6
:10375000084B10B51A5C084908480EF0ADFF00236D
:1037600007480371074B1B784371074B197804F026
:1037700065F810BDA2280210892802100CA20020B2
:0C37800078020020A90200207EE000205A
:10378C0010B50A4C0A4920000EF086FF094B187838
:10379C0004F094F8002804D1FA2080000FF048F8C7
:1037AC0010BD054920000EF077FFF9E70CA20020B0
:0C37BC00F82702107DE000201328021006
:1037C80037B500F0B9FA1F4803F02EFF1E4803F082
:1037D80035FF1E4803F03CFF1D4A1E4B12781B782C
:1037E80001921D4A1D4812780178009242780479A6
:1037F80012020A43817809040A43C1780906114371
:10380800427917481202224304F098F8154C021E18
:1038180006D0154920000EF04BFF002528003EBDBC
:10382800022003F01FFF1149051E07D0104902228C
:1038380020000EF03DFF03F099FF0E4920000EF026
:103848002DFFEBE7BB02002083E00020AB02002045
:10385800AA020020A80200207DE00020A62802106D
:10386800840200200CA200209D260210B32602101C
:08387800CB260210EC26021021
:10388000F7B5244C01900E00200023490EF00AFFEA
:1038900003F0CAFF0700012805D0204920000EF0E0
:1038A00001FF0320FEBD1E4920000EF0FBFE02209A
:1038B000642EF7DC1B4B1C4D1B78320001992868E5
:1038C0006B7119F0F3F83200184920002E710EF0D8
:1038D000F3FE174B2800197803F0B0FF15490500D7
:1038E00020000EF0DFFE002D09D1134B13491A689A
:1038F000200001321A600EF0DFFE2800D2E7104AE5
:10390000104913682000013313602A000EF0D4FE22
:103910003800C7E70CA20020FC260210092702107D
:1039200017270210A9020020780200202627021083
:103930007EE000204927021080A6002050270210B8
:083940006CA400206C270210AA
:0A39480010B503685B68984710BDD6
:1039540037B500236A469371104B114D1380302301
:103964003030D370233BC4B213712800033B53712E
:1039740094700DF0B6F8684619F0A6FC694602008A
:103984002800FFF7DFFF28000DF0BDF823006A468A
:10399400044905480EF08EFE37BDC04606300000CF
:0C39A400D49B0020C62802100CA20020BA
:1039B000F7B500220500124C124B20001A700DF0D2
:1039C00092F8114E022231002000FFF7BDFF2800BF
:1039D00019F07CFC290002002000FFF7B5FF0B4F17
:1039E000032239002000FFF7AFFF20000DF08DF813
:1039F00000972B003200064906480EF05DFEF7BD29
:103A0000D49B00207CE00020E0290210DC29021079
:083A1000902902100CA2002015
:103A180010B5012116200EF037FF012116200EF0F7
:103A280071FF0A4C01230622200000210DF092F8B4
:103A38002000C8210EF09EFE9621054A890120002B
:103A48000CF0CAFF20000DF073F810BDD49B0020C5
:043A58001103000056
:103A5C0070B50200062805D9114912480EF026FE51
:103A6C00002070BD104B002019789142F9D00F4CFA
:103A7C001A700F4B9200D55820000DF060F8200002
:103A8C000CF0FDFF0B4A290020000CF0A3FFC8210D
:103A9C0020000EF06DFE20000DF048F80120E0E74C
:103AAC00AC2802100CA20020C3020020D49B0020E2
:083ABC00E429021011030000CF
:103AC40070B52F21154819F095FB0400031E1ED074
:103AD40019F0FAFB0023042819D92479303C092C65
:103AE40017D8062C15D80E4D22000E4928000EF0CA
:103AF400E1FD0D4BA200D2580C4928000EF0DAFD6E
:103B04002000FFF725FF2000FFF7A6FF0123180080
:103B140070BD0520FFF71CFFF8E7C046F3CC00207A
:103B24000CA20020A5290210E4290210C5290210C4
:103B3400F0B5524EC3B030000CF057FF00286ED0E1
:103B44004F4B504D1C78002C00D175E0002428AB5D
:103B54001C80A22340226B44210014A81C7019F07D
:103B640035F81022210024A819F030F8464B2A0019
:103B7400212130000EF014FE07002C54BC4206D064
:103B84002A5D424942480EF095FD0134F6E7404F64
:103B94002200404938000EF08DFD14AA3A4928004D
:103BA400FFF752FC002842D04C2216A9684618F0B0
:103BB4007BFF149A159B642129A8FFF7CFFB010012
:103BC400050029A8FFF75AFE04000200002D28D0A2
:103BD400002826D1304938000EF062FD2A002F4912
:103BE40038000EF067FDA4226B469B181A5D2C4921
:103BF400380001340EF05EFDA542F4DC30000CF018
:103C040006FF0520FFF728FF002805D09622254946
:103C1400920138000EF04EFD0023194A137043B090
:103C2400F0BD2B00204938000EF044FDE6E71F49A3
:103C340038000EF035FDE1E7134A290030000EF09C
:103C44009DFD07002C541248BC4205D02A5D0F4943
:103C54000EF030FD0134F6E722000E490EF02AFD85
:103C6400FFF72EFF002806D00123054A3000137009
:103C74000CF0CDFED3E7024B1870D0E7D49B0020A4
:103C84007CE00020F3CC002088130000E828021018
:103C94000CA20020EB280210FC28021016290210A6
:103CA400282902107C290210322902105B290210F3
:023CB400704757
:083CB60010B50368984710BD2A
:103CC00010B586B010F0AEFD0124074B64421860B9
:103CD0002200012103A80EF07FFE044B9B6E01938E
:103CE00098470EF0BFFDF3E72CBF0020642E0210B2
:0A3CF00010B50C2218F0DAFE10BD2A
:103CFC001FB50D4B082203930C4B002101A8009318
:103D0C0018F060FF0A4C6946200015F057FA039B27
:103D1C00002B02D09B68684698472021200015F0A4
:103D2C0011FB012004B010BD002A0210C13C001090
:043D3C0054BF002050
:103D4000F7B50A221F4B0124DA600132DA61013231
:103D50001A6101329A6001325A6001329A61103A56
:103D60001A621A325A621A00283214701A00293262
:103D700014701A0000252A3215701D2202265A617D
:103D80001A001E602C322B3314701D7000F0BAF92B
:103D900000F008FB6B46E8209F1D32003900C00090
:103DA000DD8000F055FC3B88074A934203D0074A68
:103DB0002000934204D1FFF7A1FF01246040C0B26C
:103DC000FEBDC046FCBE00201424000034440000A8
:103DD00037B50222184B00241A60033A1A625A625D
:103DE0001A00283214701A00293214701A002A326C
:103DF00014701A002B3214701A002C32147007221F
:103E00000E4D2D331A700E4B21002C610D482B6086
:103E100015F030F90C4815F0C9F88022280023006D
:103E200000945201202115F0C5F92800074A0849DD
:103E300014F0ACFC37BDC046FCBE002054BF0020CF
:103E40009C49021094BF0020A8BF0020300200202F
:043E5000F9920110D2
:043E54008020704713
:103E580010B588B0040068460CF0F2FE6B466A465E
:103E6800DB79D27B9B186A46D27D9B186A46D27F43
:103E78009B18E3716A466B46927B9B799B186A464E
:103E8800927D9B186A46927F9B18A3716A466B467F
:103E9800527B5B799B186A46527D9B186A46527F13
:103EA8009B1863716A466B46127B1B799B186A469E
:103EB800127D9B186A46127F9B1823716A466B46CF
:103EC800D27ADB789B186A46D27C9B186A46D27EE7
:103ED8009B18E3706A466B46927A9B789B186A46F1
:103EE800927C9B186A46927E9B18A3706A466B4622
:103EF800527A5B789B186A46527C9B186A46527EB7
:103F08009B1863706A466B46127A1B789B186A4640
:103F1800127C9B186A46127E9B18237008B010BD4D
:043F280000207047BE
:023F2C007047DC
:023F2E007047DA
:023F30007047D8
:103F340010B502480CF0C4FC10BDC046509C0020D3
:0E3F440010B50400182114F06BFE200010BD13
:103F540010B5064C0A230B220C2120000CF0E2FCC5
:103F6400034A0449200014F00FFC10BD509C0020AB
:083F740030020020313F001073
:103F7C0070B586B010F050FC012501260F4B6D4238
:103F8C0018602A00002103A80EF020FD039B082BCB
:103F9C0010D10024049B01933300A340019A1A40D2
:103FAC00934204D1064A63019B189B6998470134DC
:103FBC000A2CEFD10EF050FCE3E7C04624C60020DB
:043FCC0080970020BA
:103FD000044B10B51868002802D001210EF0F0FC47
:083FE00010BDC04624C60020FC
:103FE800044B10B51868002802D002210EF0E4FC3A
:083FF80010BDC04624C60020E4
:10400000044B10B51868002802D004210EF0D8FC2B
:0840100010BDC04624C60020CB
:10401800044B10B51868002802D008210EF0CCFC1B
:0840280010BDC04624C60020B3
:10403000044B10B51868002802D010210EF0C0FC07
:0840400010BDC04624C600209B
:10404800044B10B51868002802D020210EF0B4FCEB
:0840580010BDC04624C6002083
:10406000044B10B51868002802D040210EF0A8FCBF
:0840700010BDC04624C600206B
:10407800044B10B51868002802D080210EF09CFC73
:0840880010BDC04624C6002053
:10409000044B10B51868002803D0802149000EF0A9
:0840A0008FFC10BD24C60020B6
:1040A800044B10B51868002803D0802189000EF051
:0840B80083FC10BD24C60020AA
:0E40C000C36810B5002B01D09B68984710BD57
:1040D00010B5094C094B403C2360200011F076FBE1
:1040E00020002830FFF7ECFF200011F081FC044B8A
:1040F0009C42EFD110BDC046409B0020C83A021040
:04410000C098002043
:104104001FB50A2100220F484B01C31A4533FF3360
:1041140001391A700029F7D10B4B082203930B4B7A
:1041240001A8009318F052FD094C6946200015F0CF
:1041340049F86846FFF7C2FF2021200015F006F970
:104144001FBDC04680970020002A02107D3F00104A
:0441540068C500201A
:104158000023F0B50D4A5F01BA181479002C10D16C
:1041680001259D40094E5471BD5101251571FA254F
:104178008668AD00754391619560D46003700161F4
:10418800F0BD01330A2BE5D1FAE7C046809700203D
:1041980010B50078024B8001C01811F013FB10BD58
:0441A800C09800209B
:1041AC000278054B52019B18FA22920051431800D9
:0C41BC0099600023C360704780970020CA
:0841C80010B50EF027FB10BD3D
:0C41D00010B504000EF022FB001B10BD17
:1041DC0010B50400002902D1C160200010BD044BB1
:1041EC000822C36002C0002118F0ECFCF5E7C046C1
:0441FC00002A021083
:104200001FB504780A4BA200D1586846FFF7E6FFB5
:10421000084B62010848A4019B189A68DB682018C3
:10422000694611F002FB6846FFF74AFF1FBDC04612
:0C423000C402002080970020C0980020ED
:10423C0073B50024194E1A4B2100346119483360B0
:10424C0014F012FF184814F0ABFE80222300520128
:10425C0020213000009414F0A7FF144D14492A00BB
:10426C00300014F08DFAA0212200124849002318C6
:10427C0020341A601A715A718C42F8D1A02600248D
:10428C00B6000D482018403411F0EAFAB442F8D1C7
:10429C002A000A49002014F073FA73BD68C5002087
:1042AC009C490210A8C50020BCC50020300200208B
:1042BC00F992011080970020C0980020D140001086
:1042CC0010B5044B010058690422C0B20CF04CFD2F
:0842DC0010BDC046FCBE00202D
:1042E40010B50D4C01216368D8B20EF0CFFA6368A3
:1042F4000021D8B20EF008FB0A200EF09DFA606887
:104304000121C0B20EF000FB14200EF095FA002239
:10431400024B1A7010BDC046FCBE00207BE000209A
:1043240010B5074C074B9869C0B20EF01BFB01286F
:1043340004D1013C0EF080FA002CF3D110BDC0462C
:08434400E9030000FCBE0020AB
:0A434C0010B502210BF0BAFC10BD01
:10435800034B186802384342584101307047C04641
:04436800FCBE002077
:10436C0070B50C4C23002C331D78606A002D0ED1D7
:10437C00431C0BD0236A013308D0C0B201210EF0CC
:10438C00BFFA2900206AC0B20EF0BAFA70BDC0B2F2
:08439C000121F9E7FCBE00203D
:1043A40070B50025FFF7C4FD254C264B01211D7077
:1043B400A368D8B20EF06AFAA3680121D8B20EF04D
:1043C400A3FAA3692900D8B20EF060FA6369290040
:1043D400D8B20EF05BFA63680121D8B20EF056FA37
:1043E40063680121D8B20EF08FFA23002C331B78B6
:1043F400206AAB4212D0431C03D0C0B229000EF095
:1044040045FA636A0121D8B20EF040FA606A0021CD
:10441400C0B20EF079FAFFF763FF70BD431CFAD007
:10442400636A0133F7D0C0B201210EF02FFA606A3B
:104434000121C0B20EF02AFAFFF796FFEBE7C0465F
:08444400FCBE00207BE000201B
:10444C0010B50A4C23002C331978606A002908D166
:10445C00431C0AD0236A013307D0C0B20EF050FAC5
:10446C00206AC0B201210EF04BFA10BDFCBE002038
:10447C00034B044A1A6000221A7101325A717047B8
:08448C0038C5002080841E00E9
:1044940070B50025124B1D70FFF746FD114E290023
:1044A400B368D8B20EF030FA0F4C104B200006CB94
:1044B4000CF0E7F9C02120000CF094F92900200049
:1044C4000CF090F920000CF0D2F9B0680121C0B2D0
:1044D4000EF01AFAFFF724FFFFF727FD70BDC04660
:1044E4007BE00020FCBE0020509C002038C500204A
:1044F400F7B516000C0001900BF0C6F9134F00211C
:10450400BB68A619D8B20EF0FFF9114D114B280063
:1045140006CB0CF0B6F9019928000CF063F9B4420B
:1045240005D0217828000CF05DF90134F7E7280064
:104534000CF09DF9B8680121C0B20EF0E5F9019BB9
:10454400842B01D0FFF7ECFEF7BDC046FCBE002073
:08455400509C002038C5002036
:10455C00F7B517000C0001900BF092F9144E0021E6
:10456C00B368E719D8B20EF0CBF9124D124B2800F4
:10457C0006CB0CF082F9019928000CF02FF90021E0
:10458C0028000CF02BF9BC4206D0002128000CF0BE
:10459C0025F920700134F6E728000CF064F9B068B6
:1045AC000121C0B20EF0ACF9FFF7B6FEF7BDC04664
:0C45BC00FCBE0020509C002038C50020F0
:1045C800F7B506000C0001920BF05CF9164F0021BC
:1045D800BB68D8B20EF096F9144D154B280006CBDF
:1045E8000CF04DF90D2128000CF0FAF8310A2800DA
:1045F8000CF0F6F8F1B228000CF0F2F8019BE6187E
:10460800B44205D0217828000CF0EAF80134F7E725
:1046180028000CF02AF9B8680121C0B20EF072F92E
:10462800FFF77CFEF7BDC046FCBE0020509C002072
:0446380038C5002061
:10463C0007B56B46D971073301221900FFF7BEFF8E
:02464C0007BDA8
:10465000F7B506000D0001920BF018F9184F002174
:10466000BB68D8B20EF052F9164C174B200006CB9F
:104670000CF009F91D2120000CF0B6F8310A2000D9
:104680000CF0B2F8F1B220000CF0AEF800212000DE
:104690000CF0AAF8019BEE18B54206D000212000CC
:1046A0000CF0A2F828700135F6E720000CF0E1F8D4
:1046B000B8680121C0B20EF029F9FFF733FEF7BD4B
:0C46C000FCBE0020509C002038C50020EB
:1046CC0013B56B46DC1D01222100FFF7BBFF2078E0
:0246DC0016BD09
:1046E000F7B517000C0001900BF0D0F8134E002125
:1046F000B368E719D8B20EF009F9114D114B280033
:1047000006CB0CF0C0F80E2128000CF06DF80199D2
:1047100028000CF069F8BC4205D0217828000CF084
:1047200063F80134F7E728000CF0A3F8B068012122
:10473000C0B20EF0EBF8FFF7F5FDF7BDFCBE0020B0
:08474000509C002038C5002048
:10474800F7B517000C0001900BF09CF8164E0021ED
:10475800B368E719D8B20EF0D5F8144D144B2800F9
:1047680006CB0CF08CF81E2128000CF039F80199C2
:1047780028000CF035F8002128000CF031F8BC4274
:1047880006D0002128000CF02BF820700134F6E741
:1047980028000CF06AF8B0680121C0B20EF0B2F837
:1047A800FFF7BCFDF7BDC046FCBE0020509C0020B2
:0447B80038C50020E0
:1047BC00F0B5E34B87B01F780190002F00D068E173
:1047CC00FFF7AAFDDF4D3900AB68D8B20EF098F8B0
:1047DC00DD4CDE4E2000726831680CF04EF81D2165
:1047EC0020000BF0FBFF052120000BF0F7FF8021D0
:1047FC0020000BF0F3FF390020000BF0EFFF390025
:10480C0020000BF0EBFF029020000CF02CF8AB68B2
:10481C000121D8B20EF074F8FFF77EFDAB683900B9
:10482C00D8B20EF06DF87268316820000CF025F8E3
:10483C001D2120000BF0D2FF052120000BF0CEFF34
:10484C00832120000BF0CAFF390020000BF0C6FFBB
:10485C00390020000BF0C2FF039020000CF003F88D
:10486C00AB680121D8B20EF04BF8FFF755FDAB68E1
:10487C003900D8B20EF044F87268316820000BF0A1
:10488C00FCFF1D2120000BF0A9FF052120000BF0DF
:10489C00A5FF842120000BF0A1FF390020000BF0B4
:1048AC009DFF390020000BF099FF049020000BF0C5
:1048BC00DAFFAB680121D8B20EF022F8FFF72CFD1D
:1048CC00AB683900D8B20EF01BF872683168200062
:1048DC000BF0D3FF1D2120000BF080FF05212000E1
:1048EC000BF07CFF852120000BF078FF39002000B5
:1048FC000BF074FF390020000BF070FF05902000C6
:10490C000BF0B1FFAB680121D8B20DF0F9FFFFF746
:10491C0003FDAB683900D8B20DF0F2FF7268316854
:10492C0020000BF0AAFF0D2120000BF057FF0521F2
:10493C0020000BF053FF802120000BF04FFF0823C9
:10494C00029920001943C9B20BF048FF20000BF06C
:10495C008AFFAA680121D0B20DF0D2FFFFF7DCFC70
:10496C00AA683900D0B20DF0CBFF72683168200014
:10497C000BF083FF0D2120000BF030FF05212000F0
:10498C000BF02CFF832120000BF028FF0823039948
:10499C0020009943C9B20BF021FF20000BF063FFFC
:1049AC00AA680121D0B20DF0ABFFFFF7B5FCAA68E5
:1049BC003900D0B20DF0A4FF7268316820000BF002
:1049CC005CFF0D2120000BF009FF052120000BF0EE
:1049DC0005FF842120000BF001FF0823049920001F
:1049EC009943C9B20BF0FAFE20000BF03CFFAA6809
:1049FC000121D0B20DF084FFFFF78EFCAA683900BC
:104A0C00D0B20DF07DFF7268316820000BF035FFDD
:104A1C000D2120000BF0E2FE052120000BF0DEFE44
:104A2C00852120000BF0DAFE08230599200099431C
:104A3C00C9B20BF0D3FE20000BF015FFAB680121BF
:104A4C00D8B20DF05DFFFFF767FCAB683900D8B248
:104A5C000DF056FF06CE20000BF00FFF0D212000AD
:104A6C000BF0BCFE092120000BF0B8FE2021200029
:104A7C000BF0B4FE062120000BF0B0FE20000BF072
:104A8C00F2FEA8680121C0B20DF03AFF01232C4AB6
:104A9C001370019B2B4D2D4E2B4C002B58D0FFF738
:104AAC003BFCAB680021D8B20DF02AFF726831686C
:104ABC0020000BF0E2FE1D2120000BF08FFE0921DF
:104ACC0020000BF08BFE202120000BF087FE002134
:104ADC0020000BF083FE002120000BF07FFE07006E
:104AEC0020000BF0C0FEAB680121D8B20DF008FF1E
:104AFC00FFF712FCAB680021D8B20DF001FF06CE17
:104B0C0020000BF0BAFE0D2120000BF067FE0921EE
:104B1C0020000BF063FE202120000BF05FFE08212B
:104B2C003943C9B220000BF059FE20000BF09BFE5C
:104B3C00A8680121C0B20DF0E3FE07B0F0BDC0467D
:104B4C007BE00020FCBE0020509C002038C50020DB
:104B5C00FFF7E2FBAB680199D8B20DF0D1FE726899
:104B6C00316820000BF089FE1D2120000BF036FE71
:104B7C00092120000BF032FE202120000BF02EFE2C
:104B8C00019920000BF02AFE019920000BF026FE63
:104B9C00070020000BF067FEAB680121D8B20DF0C6
:104BAC00AFFEFFF7B9FBAB680199D8B20DF0A8FEC8
:104BBC0006CE20000BF061FE0D2120000BF00EFE46
:104BCC00092120000BF00AFE202120000BF006FE2C
:084BDC00F7213940A6E7C046AD
:104BE40010B50A4C23002A331B78002B02D0012075
:104BF400FFF7E2FD23002C331B78002B04D0606AFE
:104C04000121C0B20DF080FE10BDC046FCBE0020E4
:104C140010B50A4C23002A331B78002B02D0002045
:104C2400FFF7CAFD23002C331B78002B04D0606AE5
:104C34000021C0B20DF068FE10BDC046FCBE0020CD
:104C440037B515000E4A01AB2C32127804009A7065
:104C540009221A700B4A59701278002A01D00A22CC
:104C64001A70094A1900107802F0D6FF641983B249
:104C74000020A34203D3FF23A3424041C0B23EBD60
:0C4C8400609B00203DCA0020A3C6002059
:104C900070B50024274B284A1C60284B1C60284B09
:104CA0001C60284B1C7001231370274A1370274A7D
:104CB0001470274A1470274A1380274A1470274A11
:104CC0001470274A1370274A274B1178901C1970CB
:104CD00051785970C07F991CC87719001000243191
:104CE000243060C860C1100019002C3000782C31CD
:104CF0000870100019002D3000782D310870116BEC
:104D0000526B19635A63194B0221187802F0F1FFB4
:104D1000174B1C70174B1C70174B1C70174B1B68E4
:104D2000002B02D05C629B6AFAE7154A1370154AA1
:104D3000137070BDECA40020EC02002084A50020BC
:104D4000DCA40020C8CB0020EE0200203BCA0020DB
:104D5000EACC00204EC60020CBCB0020B0CC0020F7
:104D6000ED020020989B0020609B0020A3C600203D
:104D70003ECB00203ECA0020C7CB00201CA600204E
:084D8000E2CC002099C80020DC
:104D880010B50C48FFF704FA0B4B1B78002B07D023
:104D980001220A4B1A700423094A116899431160C9
:104DA800084B1B78022B04D1074A0E3311780B43AA
:104DB800137010BD6CA500203ECB00203BCA00201C
:0C4DC800D09B0020C2CB0020A2C600201F
:104DD400F0B587B0FFF7F6F9384B05001B78022BC6
:104DE40003D0374B1B6B01939847364B364C1B78DB
:104DF400002B52D0354B364E19683000FFF7D4F9EA
:104E04003000FFF7FBF9334F334E38003168FFF7BA
:104E1400CBF93800FFF7F2F9284B1B78022B03D0AB
:104E24002E4B1B78002B0FD0122303A90B702C4B95
:104E3400187802F0F1FE31682A4E41183000FFF76D
:104E4400B3F93000FFF7DAF92278274B120733D58C
:104E5400264A1278002A2FD101321A70244B254A8F
:104E64001B7804A913700B70234B4D601B78013B16
:104E74005A4253414B701A4B187802F004FF1F4BEF
:104E84001D60164B1B78002B05D11D4A53701D4A1B
:104E940013780133137007B0F0BD194A537004221C
:104EA400124B5A702378002B01D101332370102345
:104EB400227813432370C7E70022CEE7C2CB002039
:104EC400642E0210ED020020A2C600201CA50020C2
:104ED40024A500203CA5002020A500203ECB0020D6
:104EE400A3C600206CA50020C5CB0020A0A40020F0
:104EF400E2CC002099C80020A1C6002060A60020B2
:084F04008CA40020C8CB0020A2
:104F0C00044B10B59B6B002802D10800984710BDCC
:084F1C000020FBE7642E0210E7
:104F240070B51C48FFF736F91B4D1C4B2A001C4C6E
:104F34001B782D3223706B6A636012782274194ACD
:104F4400127862740122E274174A10780A281BD07E
:104F54000B281BD0092802D1144A9B186360144BF8
:104F64001B78022B14D00023124A21000432A374AC
:104F740003F008F8002806D0A07CE968FFF7C4FF16
:104F8400E27C0D4B1A7070BD0C4AE6E70C4AE4E76C
:104F94000123E9E73CA50020609B0020E2CC00202F
:104FA4009CA500203DCA0020A3C60020C088E4FFC1
:104FB400C2CB002004A50020D1CC0020C04A9BFF16
:044FC40020F9A5FF2C
:104FC8000B4B07B51B78022B0ED00A4B1B6B0193BA
:104FD80098470223084A5370084A5370084A0E3308
:104FE80011780B43137007BDFFF798FFF1E7C04630
:104FF800C2CB0020642E02108CA40020A0A40020A4
:04500800A2C600201C
:10500C0037B51548FFF7C2F80023144A144C137037
:10501C00144A154D12782270AA1CD27FE2702A0015
:10502C002D321278A3742274E374104A104B127848
:10503C001B786274022B03D10E4B5B6B0193984768
:10504C000D4B0E4A18780432210002F097FFE968E4
:10505C00A07CFFF755FF37BD24A50020D1CC002044
:10506C0088A50020E2CC0020609B00203DCA0020D7
:10507C00C2CB0020642E0210A3C6002004A5002081
:10508C0013B5194C2378022B1FD0184B1B6B0193B3
:10509C009847174B1A78174B1978174B002917D1CB
:1050AC00002A02D0154A0331517003225A70144B56
:1050BC001868FFF787F8134B1B68984204D310232A
:1050CC00114A11780B43137013BDFFF725FFE0E76E
:1050DC00002A02D00421094A517004225A70237804
:1050EC00022BECD1F0E7C046C2CB0020642E02109C
:1050FC003ECB0020D1CC0020A0A400208CA400200A
:0C510C0060A6002020A50020A2C6002004
:10511800174B07B51B78022B1FD0164B1B6B01933F
:105128009847154B1A78154B1978154B002917D144
:10513800002A02D0134A0531517005225A70124BC9
:105148001868FFF741F8114B1B68984204D31023E5
:105158000F4A11780B43137007BDFFF7DFFEE0E736
:10516800002A02D00621074A517006225A70EEE73B
:10517800C2CB0020642E02103ECB0020D1CC0020F0
:10518800A0A400208CA4002060A6002020A5002058
:04519800A2C600208B
:10519C00F0B504000E008FB003920793039B9E4260
:1051AC0000D3C5E1A05D751C0238EDB2082800D90A
:1051BC00BEE1FBF75DF9090015008700A400E600CD
:1051CC000D013C015C0196010022DA4B5A70615DC5
:1051DC00B21CD2B21972A25C0336F6B25A72DDE777
:1051EC0000230B2706AA53729372BF1809AA1370D7
:1051FC003B706B1EE3180B93039B0BA901335B1BDA
:10520C000B71CD4BCD4E1B7806A88B7133002C3314
:10521C001B784B717378CB7133780B72C84BDB7F77
:10522C004B72C84B1B7801929C460A2306AA9B180A
:10523C00092200971218604602F013FFC343049032
:10524C005B0708D106AB5B7ABD4A737006AB9B7AE1
:10525C0033703B78D37709AB1E7805213000FBF710
:10526C0011F98021B84A49421278B84F8A1A0021A4
:10527C00D2B2013A0692B64AC3B2BC4610780A00C2
:10528C000593B44B1B78059F974211D0069FBB42E8
:10529C000BDA60460327C7546F46591C3F7CC9B2D2
:1052AC004754012001000233DBB20132D2B2EAE7EB
:1052BC00002903D0A74A1370A54B1870013EAE19F4
:1052CC00F6B26BE70121635DA34A802513700A00D7
:1052DC009A40A24B9F481A809B4B6D421B780278D8
:1052EC00EB1A0236DBB2F6B2934200D856E75318EB
:1052FC0003700420954B9854954B19704EE7635DE1
:10530C0007251A110BAF2A407A700F2213403B70FD
:10531C00B31CDBB2E15C301DF31CC0B2DBB2E25C4F
:10532C00235C12021B04134364220B4353430C9360
:10533C00844B3900187802F0D1FE0536F6B20540E0
:10534C00072D09D17D4B39781A00283211707A68F3
:10535C005A627A780233DA7780257B4A7D49127853
:10536C006D42AA1AD2B20B78013A934200DB15E7D0
:10537C00764A8535D5549D1C0133DBB20D70D05463
:10538C0022E0774BFF201B68002B03D01B68002BFF
:10539C0000D0984780266C4A764212786D49B21A32
:1053AC00D2B20B78023A2E00934200DBF6E60625C9
:1053BC00664AD5545D1CEDB25055D81C0870694630
:1053CC000233097FDBB299540122614B1A70E5E676
:1053DC00635D09A90B71F31CDBB2E55C331DDBB219
:1053EC00E35C2D021B042B43B51CEDB2655D701DF7
:1053FC002B4364256B430B930023C0B20C93235CAB
:10540C000BAA13724F4B0992187802F09EFE4E4A6B
:10541C0050491278E43DAA1AD2B20B780636013AFA
:10542C00F6B2934200DBB9E6484A8735A2E70F2271
:10543C00635D0236F6B21A4000D10132FA23FA212A
:10544C0080209B0053433D4A890013615B185361D4
:10545C003D4B40491B784042C31A0A78DBB2934259
:10546C0000D89BE6531C0B70384B0821ABE700228D
:10547C00635D0BAD02362A702032F6B21A402ED183
:10548C006A70DA0601D501222A700F221340AB7024
:10549C002C4B2900187802F08FFE431C00D17DE6BE
:1054AC00264F2A783B002C331A703B006A782D3338
:1054BC001A70AB782B4AD05CFCF700F8386380206C
:1054CC00214B24491B784042C31A0A78DBB2934221
:1054DC0000D863E6531C0B701C4B092173E70122A7
:1054EC00CEE7635D0BA90B70B31CDBB2E25C371D1E
:1054FC00F31CDBB2FFB2E05CE35D00021B04034370
:10550C0013436422802553434B600E4B6D42187835
:10551C0002F089FE0C4A0F4912780B78AA1A05364C
:10552C00D2B2F6B29A4200D838E6084A8A3521E758
:10553C000FB0F0BDA0A40020E9CC0020609B00209F
:10554C00619B0020A3C60020B0CC002041CB0020E2
:10555C00C7CB0020CBCB0020EACC00204EC60020CD
:08556C00D8A500200C2A021052
:10557400F0B58BB0049310AB05921A8800230C008D
:10558400B64DB74906930B702B80049BB54E591E3C
:105594008B4101785B42317000781A40B24FD3B22C
:1055A40040093B70FAF768FF080057014C005701A7
:1055B400490057015701470101232B80AB4B0822B7
:1055C4001968AB480BF0F6F82888AA4B083080B26B
:1055D40019680822288030180BF0ECF82B8808335F
:1055E4002B80A54B9B6904939847A44B82B21A80E5
:1055F4002B88120AF054991C01339BB2F254A04A2E
:1056040089B23000298006ABC9B2126801F0CAFD24
:105614002B88069A591C100A89B2F2547054991CAA
:1056240089B2100C7054191D03339BB2120EF2543C
:105634000026298030000BB0F0BD0122884B1A707F
:10564400904B07261D78012DF4D1237807A9F34048
:105654008D4E4B7033680D704B608C4B8C485A7870
:1056640000780A721A784A721A002C3212788A72F6
:105674005A1C009602F013FC402328402578800130
:105684009D43844B05431A782570002A05D00022D7
:105694001A702023EAB2134323707F4B714F1B68A7
:1056A4007E4E1A0A7B70BA701A0C1B0EFA703B718C
:1056B400237830787B717A4B7A4D1B687A49BB71B9
:1056C4001B0AFB71794B40191A780BF06AF8774B77
:1056D40032781B780499D218D2B23270744B0029F4
:1056E40037D061490878002833D01B780826002B6E
:1056F40013D00F2A28D80F2021780B071B0FD3189B
:10570400034081430B4323707B71002394B299B20D
:105714008C4214D816000836F6B20021644B624D50
:1057240019700B009A4237D95E48C45CE01E072802
:1057340022D8FAF797FE2F21172C2F242117E85C83
:10574400F91808720133E2E70A70002304950593FF
:10575400E3E70826002AE0D01B78002BDDD0424B7B
:105764001A70F2E76C5401334E4CDBB2481CE45C13
:10577400C0B20231C9B22C540133DBB2D2E7481CA7
:1057840084460820484C60546146C9B2F4E70233A9
:10579400DBB2F1E70133FBE7444B1970002902D077
:1057A4000122434B1A70049B002B1FD02E4B1978F7
:1057B40000291BD06D463A4A2D7D1068294A364B84
:1057C4009555741C059DE4B289B21B68A218002D7E
:1057D4002BD16E46314D367D2E700292059A019082
:1057E4000092344A049801F05FFC26001E4B1B4CC7
:1057F400197806AB8919002621800293284B2D4A7B
:105804001B6800960193244B38001B6801F00AFCC6
:10581400069A2188100A7B187A5458700431100CA7
:10582400120E9870DA70218004E70292002201902F
:105834000092214AD6E7049E311E00D1FAE60026E2
:10584400B34200D1F6E6D2B209480AF0AAFF3B7887
:1058540001332B80EEE60226ECE6C0469CC600200F
:105864003ECB00209AC80020C6CB0020E0A4002034
:105874009BC80020E8A40020642E02104CC600201F
:10588400E4A40020A1C60020DCA40020609B00202A
:10589400A3C600203ECA002000A50020CBCB0020D8
:1058A400ECA4002041CB002030CC0020B0CC002060
:0C58B400C7CB0020EBC90020DBC900209E
:1058C00070B588B002ABDD1D002304A9244C2B70F9
:1058D000087063784B7023788B70236B4B60636B1D
:1058E0008B60204B1B888B811F4B1B78002B05D0B6
:1058F0001E4B1B780B701E4B1B784B701D4E1E4BA6
:105900002A001878330002F078FB01211B4B1C4A57
:105910005970517061781B4C997029782000D970AA
:10592000316899605160FA21FEF740FC2000FEF7D3
:1059300067FC154B1B78012B03D0144A13780133F5
:105940001370084B12481978124BDB6A0193984781
:1059500001230020104A11680B43136008B070BD8A
:10596000609B00209CC600208DE000208EE000207F
:1059700041030020BC9C0020A3C600208CA4002072
:10598000A0A4002020A60020A1C6002040CB00201B
:0C5990009AC80020642E0210D09B00205A
:10599C000023F0B587B002935B4B09201B78FF2BDB
:1059AC0000D184E0594E002B00D13360584B594F35
:1059BC001A78594B03AD1B78EA70013B59424B41A5
:1059CC002B703B78AB70554B1868FEF7FBFB544CB7
:1059DC00686023682900AB60524B1B786B70524B8C
:1059EC00187802F08EFC514B1A882368013A534305
:1059FC0032684F4C9B183360039363782B723B785F
:105A0C00AB72454B1B78013B5A4253416B72494B6D
:105A1C001B686B60444F02AB3878474A00962900EC
